:1000000006C1000023C1000021C100001FC1000083
:100010001DC100001BC1000019C1000017C1000074
:1000200015C1000013C1000011C100000FC1000084
:100030000DC100006FC2000009C1000007C100002F
:1000400005C1000003C1000001C10000FFC00000A5
:10005000FDC00000FBC00000F9C0000011C200009C
:10006000F5C00000F3C00000F1C00000EFC00000C8
:10007000EDC00000EBC00000E9C00000E7C00000D8
:10008000E5C00000E3C00000E1C00000DFC00000E8
:10009000DDC00000DBC00000D9C00000D7C00000F8
:1000A000D5C00000D3C00000D1C00000CFC0000008
:1000B000CDC00000CBC00000C9C00000C7C0000018
:1000C000C5C00000C3C00000C1C00000BFC0000028
:1000D000BDC00000BBC00000B9C00000B7C0000038
:1000E000B5C000007401770166016A016E01AE01BE
:1000F0007B017F01850189018D01930197019B019E
:10010000AE01A101A501A90100000A0B02090C0D15
:100110000E080703040100000000000000000000BA
:1001200000000000000000000000000000000000CF
:10013000000000001211100000000000000000008C
:1001400000000000000000000000000000000000AF
:100150002200250028002B002E003100340002016F
:100160000000050108010B01000021002400270008
:100170002A002D00300033000101000004010701B6
:100180000A0105050505070508080808020202021C
:100190000A0A080804040404010101010101010123
:1001A0000303030303030303040707070C0C0C0CEE
:1001B0000C0C0C0C020202020606060606060606D7
:1001C0000B0B0B0B0B0B0B0B010210202008081064
:1001D00020401020408002010201080402010102B7
:1001E0000408102040808040201008040201800490
:1001F00002018040201008040201080402010102EB
:1002000004081020408001020408102040801124BE
:100210001FBECFEFD1E2DEBFCDBF00E00CBF12E0CA
:10022000A0E0B2E0E6E7F8E000E00BBF02C0079014
:100230000D92AA31B107D9F722E0AAE1B2E001C0DC
:100240001D92A83DB207E1F716D213C3D9CE90E0B4
:10025000FC01E853FE4F2491FC01EE57FE4F8491C0
:10026000882399F090E0880F991FFC01E859FE4F10
:10027000A591B491FC01E25BFE4F859194918FB7FB
:10028000F894EC91E22BEC938FBF0895362F90E019
:10029000FC01E85FFE4F4491FC01E853FE4F2491BE
:1002A000FC01EE57FE4F9491992309F46AC0442350
:1002B00009F454C050E0FA013197E231F10508F039
:1002C0004DC08827EE58FF4F8F4FCBC280918000E2
:1002D0008F7707C0809180008F7D03C08091800060
:1002E000877F809380003AC084B58F7702C084B541
:1002F0008F7D84BD33C08091B0008F7703C0809123
:10030000B0008F7D8093B00029C0809190008F77DE
:1003100007C0809190008F7D03C080919000877FFF
:10032000809390001BC08091A0008F7707C08091C0
:10033000A0008F7D03C08091A000877F8093A000E4
:100340000DC0809120018F7707C0809120018F7DA3
:1003500003C080912001877F80932001E92FF0E086
:10036000EE0FFF1FE25BFE4FA591B4918FB7F8949B
:10037000EC91311103C020952E2301C02E2B2C931C
:100380008FBF0895CF93E4E2F2E0AFEF90E02081D9
:1003900087FF03C027FF06C048C0281719F0AF3FEA
:1003A00041F404C0158287FDFACF43C0208127FDA8
:1003B000A92F9F5F3996943151F787FD3AC0AF3F1F
:1003C00009F437C0C82F89E0A802D0011124AC5D20
:1003D000BD4FCC932091230211962C9311978C2F13
:1003E0000C2E000C990BFC01EE57FE4FE491F0E04F
:1003F000EE0FFF1FE25BFE4F4591549113965C9305
:100400004E931297FC01E853FE4FE4911496EC933F
:10041000149715961C92211102C060E001C061E0A2
:100420008C2F34DF8C2FCF9112CFAF3F09F0C1CF8B
:10043000BFCFCF9108953FB7F89480911F0290915C
:100440002002A0912102B091220226B5A89B05C0EE
:100450002F3F19F00196A11DB11D3FBFBA2FA92F43
:10046000982F8827820F911DA11DB11DBC01CD01C0
:1004700042E0660F771F881F991F4A95D1F70895AC
:100480001F920F920FB60F9211242F933F938F93C9
:100490009F93AF93BF9380911B0290911C02A091F8
:1004A0001D02B0911E0230911A0223E0230F2D3756
:1004B00020F40196A11DB11D05C026E8230F029668
:1004C000A11DB11D20931A0280931B0290931C0260
:1004D000A0931D02B0931E0280911F0290912002F2
:1004E000A0912102B09122020196A11DB11D80931D
:1004F0001F0290932002A0932102B0932202BF9189
:10050000AF919F918F913F912F910F900FBE0F90C0
:100510001F9018951F920F920FB60F9211240BB6D1
:100520000F920F931F932F933F934F935F936F936C
:100530007F938F939F93AF93BF93CF93DF93EF936B
:10054000FF93809100028F5F80930002882329F03F
:10055000E4E2F2E020E030E059C004E212E0EAE236
:10056000F2E0CCE2D2E0CE010197DC014C91CF0168
:100570000197DC01411103C028812223F9F02C915D
:1005800030E0808190E0B901681B790B16161706E0
:1005900044F4442389F0840F911D8217930764F477
:1005A0000AC0672B49F04881442331F0841B91092C
:1005B000281739070CF49C01208302C08C9180839A
:1005C00080818823C9F0CF010597DC018C91AF01B0
:1005D00042505109D80112962D913C911397D9019F
:1005E0009C91DA01811103C08C91892B03C08C91FD
:1005F00080958923D9018C93075F1F4F39962996DF
:10060000B2E0083D1B0709F0AECFA2CF808187FD85
:1006100015C0E901CC5DDD4F809100029E819813E9
:100620000DC09981A281B3818C81911104C09C91EC
:100630008095892302C09C91892B8C933996275FE2
:100640003F4F243B310511F7FF91EF91DF91CF919F
:10065000BF91AF919F918F917F916F915F914F91DA
:100660003F912F911F910F910F900BBE0F900FBED6
:100670000F901F901895789484B5826084BD84B5DE
:10068000816084BD85B5826085BD85B5816085BD8D
:1006900080916E00816080936E0010928100809145
:1006A00081008260809381008091810081608093CD
:1006B0008100809180008160809380008091B100F2
:1006C00084608093B1008091B00081608093B0001D
:1006D000809191008260809391008091910081606F
:1006E0008093910080919000816080939000809130
:1006F000A10082608093A1008091A100816080931D
:10070000A1008091A00081608093A00080912101D0
:100710008260809321018091210181608093210179
:100720008091200181608093200180917A00846013
:1007300080937A0080917A00826080937A00809121
:100740007A00816080937A0080917A00806880933B
:100750007A001092C100C1E0D2E029E0E22E22E04E
:10076000F22E31E1C32E32E0D32E8E01F8018191B9
:100770008F016DDDF60181916F0169DDF7018191D6
:100780007F0165DDF2E009301F0781F761E08991A3
:100790007DDD22E0C930D207C9F781E087BB82E066
:1007A0008093B1008093B00092E89093B30080935F
:1007B0007000E4E2F2E080E090E02FEF2083DC01C3
:1007C000AC5DBD4F11961C92119713821282179641
:1007D0001C92179718961C9239960996843B91059E
:1007E00069F710922302C0E0D0E099E0E92E92E090
:1007F000F92E01E112E0F80181918F01C3DDF701CB
:1008000081917F01BFDDF2E009311F07A1F713DEFF
:100810004B015C0180EDC82E87E0D82EE12CF12C35
:100820000ADEDC01CB0188199909AA09BB09883EB7
:100830009340A105B10558F021E0C21AD108E108A2
:10084000F10888EE880E83E0981EA11CB11CC1142B
:10085000D104E104F10421F7209739F20E9400004D
:10086000C4CFEE0FFF1F881F8BBF0790F691E02DBE
:060870001994F894FFCF7B
:10087600FF09080706050403023533312F27292B04
:0A0886002D17191B1D1F212325004B
:00000001FF
