:1000000014C1000042C1000040C100003EC1000018
:100010003CC100003AC1000038C1000036C10000F8
:1000200034C1000032C1000030C100002EC1000008
:100030002CC1000036C2000028C1000026C100000B
:1000400024C1000022C1000020C100001EC1000028
:100050001CC100001AC1000018C10000D8C1000076
:1000600014C1000012C1000010C100000EC1000048
:100070000CC100000AC1000008C1000006C1000058
:1000800004C1000002C1000000C10000FEC0000069
:10009000FCC00000FAC00000F8C00000F6C000007C
:1000A000F4C00000F2C00000F0C00000EEC000008C
:1000B000ECC00000EAC00000E8C00000A3C20000DD
:1000C000E4C00000E2C00000E0C00000DEC00000AC
:1000D000DCC00000DAC00000D8C00000D6C00000BC
:1000E000D4C0000061016401530157015D019B010F
:1000F00068016C01720176017A0180018401880136
:100100009B018E0192019601000020002300260031
:1001100029002C002F00320000010000030106011D
:10012000090100002100240027002A002D003000D2
:10013000330001010000040107010A0100000A0B5D
:1001400002090C0D0E080703040100000000000066
:10015000000000000000000000000000000000009F
:10016000000000000000000012111000000000005C
:10017000000000000000000000000000000000007F
:1001800000000102102020080810204010204080AC
:10019000020102010804020101020408102040804B
:1001A00080402010080402018004020180402010D9
:1001B0000804020108040201010204081020408022
:1001C00001020408102040800000220025002800C1
:1001D0002B002E003100340002010000050108014F
:1001E0000B010505050507050808080802020202BB
:1001F0000A0A0808040404040101010101010101C3
:100200000303030303030303040707070C0C0C0C8D
:100210000C0C0C0C02020202060606060606060676
:100220000B0B0B0B0B0B0B0B490D11241FBECFEF50
:10023000D1E2DEBFCDBF00E00CBF12E0A0E0B2E033
:10024000EEE9FFE100E00BBF02C007900D92AA317A
:10025000B107D9F723E0AAE1B2E001C01D92AB3BA0
:10026000B207E1F711E0C5E1D1E000E006C0219757
:100270000109802FFE010E945E0DC431D10780E08C
:100280000807A9F7D9D30C94CD0FBACE90E0FC01A2
:100290003197E231F10508F04EC08827EE58FF4F44
:1002A0008F4F0C945E0D809180008F7703C08091FA
:1002B00080008F7D80938000089580918000877FEB
:1002C000F9CF84B58F7702C084B58F7D84BD089542
:1002D0008091B0008F7703C08091B0008F7D8093B4
:1002E000B0000895809190008F7707C080919000B2
:1002F0008F7D03C080919000877F80939000089548
:100300008091A0008F7707C08091A0008F7D03C0EF
:100310008091A000877F8093A000089580912001A4
:100320008F7707C0809120018F7D03C080912001CD
:10033000877F8093200108951F93CF93DF93282F09
:1003400030E0F901E45CFE4F8491F901EE57FE4F75
:10035000D491F901EE51FE4FC491CC23C1F0162F78
:10036000811194DFEC2FF0E0EE0FFF1FE853FE4FFA
:10037000A591B4918FB7F894111105C09C91ED2F00
:10038000E095E92302C0EC91ED2BEC938FBFDF9158
:10039000CF911F910895CF93DF9390E0FC01EE572A
:1003A000FE4F2491FC01EE51FE4F8491882361F1B0
:1003B00090E0880F991FFC01EE5DFE4FC591D4912E
:1003C000FC01E853FE4FA591B491611109C09FB79C
:1003D000F8948881209582238883EC912E230BC08A
:1003E000623061F49FB7F8943881822F809583231F
:1003F0008883EC912E2B2C939FBF06C08FB7F89467
:10040000E8812E2B28838FBFDF91CF9108951F9213
:100410000F920FB60F9211242F933F938F939F93B8
:10042000AF93BF938091F1029091F202A091F302F9
:10043000B091F4023091F00223E0230F2D3720F425
:100440000196A11DB11D05C026E8230F0296A11D2E
:10045000B11D2093F0028093F1029093F202A093D9
:10046000F302B093F4028091EC029091ED02A0911E
:10047000EE02B091EF020196A11DB11D8093EC0236
:100480009093ED02A093EE02B093EF02BF91AF9173
:100490009F918F913F912F910F900FBE0F901F90C2
:1004A00018951F920F920FB60F9211240BB60F9250
:1004B0000F931F932F933F934F935F936F937F936C
:1004C0008F939F93AF93BF93CF93DF93EF93FF935C
:1004D000809100028F5F80930002882329F0E7E07B
:1004E000F3E020E030E059C007E013E0EDE0F3E096
:1004F000CFE0D3E0CE010197DC014C91CF01019711
:10050000DC01411103C028812223F9F02C9130E055
:10051000808190E0B901681B790B1616170644F428
:10052000442389F0840F911D8217930764F40AC055
:10053000672B49F04881442331F0841B9109281727
:1005400039070CF49C01208302C08C918083808148
:100550008823C9F0CF010597DC018C91AF0142508F
:100560005109D80112962D913C911397D9019C9174
:10057000DA01811103C08C91892B03C08C91809585
:100580008923D9018C93075F1F4F39962996B3E0D1
:100590000B3B1B0709F0AECFA2CF808187FD15C0B2
:1005A000E901C95FDC4F809100029E8198130DC064
:1005B0009981A281B3818C81911104C09C91809515
:1005C000892302C09C91892B8C933996275F3F4FDA
:1005D000243B310511F7FF91EF91DF91CF91BF914E
:1005E000AF919F918F917F916F915F914F913F91CB
:1005F0002F911F910F910F900BBE0F900FBE0F9078
:100600001F9018951F920F920FB60F9211240BB6E0
:100610000F922F933F934F935F936F937F938F939B
:100620009F93AF93BF93CF93DF93EF93FF9320916B
:100630001B0230E0F901E45CFE4F8491F901EE57B2
:10064000FE4FD491F901EE51FE4FC491CC2399F0A5
:1006500081111CDEEC2FF0E0EE0FFF1FE85FFE4F74
:10066000A591B491EC91ED2331E020E009F430E064
:10067000832F922F02C080E090E020911F023091E2
:1006800020022F5F3F4F3093200220931F022091C2
:100690001E02253618F026E020931A0220911A0235
:1006A0002430D9F128F4223069F02330D9F060C029
:1006B000253009F453C0263009F05AC021E02093B8
:1006C000EB0253C0009709F053C020911F023091F4
:1006D00020022436310508F443C01092EB02109238
:1006E0001E021DC08130910509F042C0E0911E023A
:1006F00021E02E0F20931E02F0E020911F02309186
:100700002002EE0FFF1FE65EFD4F30872783109219
:10071000200210921F0224E029C00097B9F4E09152
:100720001E0221E02E0F20931E02F0E020911F02F6
:1007300030912002EE0FFF1FE65EFD4F30872783CA
:100740001092200210921F0223E010C020911F027D
:10075000309120022536310558F007C0009741F44A
:100760001092200210921F0203C025E020931A026B
:1007700020911D022223B1F0892B51F480911C029B
:10078000882321F080911C0261E009C02F9A0AC0E1
:1007900080911C02882329F080911C0260E0CCDD4E
:1007A00001C02F98FF91EF91DF91CF91BF91AF9151
:1007B0009F918F917F916F915F914F913F912F9179
:1007C0000F900BBE0F900FBE0F901F901895CF92F9
:1007D000DF92EF92FF92CF93DF93EC01072E000C94
:1007E000880B990B0E94BA0E6B017C0120E030E06F
:1007F00040E45FE30E946A0F20E030E048E452E406
:100800000E941F0E0E94870EC617D707D4F020E063
:1008100030E040EA5FE3C701B6010E946A0F20E0C2
:1008200030E048E452E40E941F0E20E030E040E84F
:100830005FE30E94B70D0E94870E21E06C177D07D1
:100840000CF420E0822F90E0DF91CF91FF90EF90A9
:10085000DF90CF9008950F931F93CF93DF938B0179
:10086000C82F880FDD0BFE01E75FFD4F6115710595
:1008700011F460E003C01616170634F4808111D01D
:10088000CF5FDD4F60E007C060E080810AD0602F5D
:100890006195CF5FDD4F8881DF91CF911F910F91DF
:1008A00000C0CF93E7E0F3E0AFEF90E0208187FF57
:1008B00003C027FF06C049C0281719F0AF3F41F415
:1008C00004C0658387FDFACF44C0208127FDA92F8E
:1008D0009F5F3996943151F787FD3BC0AF3F09F4D4
:1008E00038C0C82F89E0A802D0011124A95FBC4FED
:1008F000CC932091060311962C9311978C2F0C2EDC
:10090000000C990BFC01EE51FE4FE491F0E0EE0F6C
:10091000FF1FE853FE4F4591549113965C934E93FD
:100920001297FC01EE57FE4FE4911496EC93149746
:1009300015966C93211102C060E001C061E08C2F1C
:10094000FBDC61E08C2FCF9126CDAF3F09F0C0CF0B
:10095000BECFCF9108958F929F92AF92BF92CF92C8
:10096000DF92EF92FF920F931F93CF93DF93FC01DF
:10097000C081D1812091010330910203C217D307B6
:100980000CF048C09E01220F331FE091FF02F0914E
:100990000003E20FF31F80809180C170DD27F1E03A
:1009A000CF27209719F404E610E002C00CE91FEFEE
:1009B0007A015B016C01040F151FB801C40107DF48
:1009C000892B89F40E0D1F1DB801C40100DF892B8E
:1009D00069F4B8016E0D7F1DC401F9DE892BE9F0C1
:1009E00023E030E005C021E030E002C022E030E04A
:1009F000F501808191810196821793073CF0F50102
:100A000011821082F6018081918101969183808309
:100A1000CE0105C081E090E002C08FEF9FEFDF9133
:100A2000CF911F910F91FF90EF90DF90CF90BF90EB
:100A3000AF909F908F900895CF93DF93CDB7DEB79F
:100A40002C970FB6F894DEBF0FBECDBF789484B557
:100A5000826084BD84B5816084BD85B5826085BDBA
:100A600085B5816085BD80916E00816080936E0048
:100A7000109281008091810082608093810080913A
:100A800081008160809381008091800081608093EB
:100A900080008091B10084608093B1008091B000AB
:100AA00081608093B000809191008260809391007A
:100AB000809191008160809391008091900081608D
:100AC000809390008091A10082608093A10080912A
:100AD000A10081608093A1008091A000816080933B
:100AE000A0008091210182608093210180912101E9
:100AF0008160809321018091200181608093200199
:100B000080917A00846080937A0080917A0082607C
:100B100080937A0080917A00816080937A0080913E
:100B20007A00806880937A001092C10001E112E09F
:100B300089E0A82E82E0B82E91E0C92E92E0D92E4D
:100B4000780161E0D7018D917D0125DC61E0F5013F
:100B500081915F0120DC61E0D6018D916D011BDC8C
:100B6000B9E1EB16B2E0FB0661F761E0F8018191B3
:100B70008F01E2DBF2E009311F07B9F7F894109218
:100B8000200189E08093210180E293E09093290184
:100B900080932801109225011092240112E01093F5
:100BA0007300789410931A0210921E0280911B0217
:100BB00060E0F1DB81E087BB1093B1001093B000DF
:100BC00082E88093B30010937000E7E0F3E080E0E8
:100BD00090E02FEF2083DC01A95FBC4F11961C929F
:100BE00011971382128217961C92179718961C92CF
:100BF00039960996843B910569F71092060310E235
:100C0000212E312C44244A94542C320121E232E02A
:100C1000309300032093FF0280911E0290E0909396
:100C20000203809301038091EB0290E09093040310
:100C30008093030380911A02853009F06BC2809182
:100C4000230290912402885891098D35910588F4EA
:100C500080911E02843041F48091250290912602F9
:100C60008097479708F477C280911E02843408F079
:100C700059C280911E028A3108F44FC0809121022E
:100C800090912202843F914068F41092FE021092EB
:100C9000FD024092F9025092FA026092FB027092B9
:100CA000FC0259C0809123029091240285974B97B2
:100CB000A0F5E7E2F2E082E090E0C12CD12C7601D1
:100CC000AC014F5F5F4F20911E0230E04217530787
:100CD0005CF4DF0112972D913C91275031092730A8
:100CE000310508F47EC2CA010197959587959093C6
:100CF000FE028093FD020C972CF41092FE021092DB
:100D0000FD020BC0C092F902D092FA02E092FB02FF
:100D1000F092FC0284E090E03AC380911E028A3196
:100D200008F44CC0809121029091220280329340BD
:100D300008F4ABCF8091230290912402C697869746
:100D400008F46CC23BC0C092F902D092FA02E09261
:100D5000FB02F092FC028BE090E019C3208131810C
:100D6000255231092B31310508F068C2CC0CDD1C4D
:100D7000EE1CFF1C6894C0F802963496AC014F5FDD
:100D80005F4F20911E0230E04217530754F4DF01F9
:100D900012972D913C912C5031092B303105F0F2F6
:100DA000CA010197959587959093FE028093FD0265
:100DB0000C974CF61092FE021092FD0280911E02DA
:100DC000823208F44DC0809123029091240206974C
:100DD000079708F045C0E7E2F2E082E090E0C12C1E
:100DE000D12C76019C012F5F3F4F40911E0250E0B5
:100DF00024173507E4F4DF0112974D915C911197A8
:100E00004E5151094731510508F025C2CC0CDD1C6B
:100E1000EE1CFF1C6894C0F8408151813496435009
:100E200051094530510510F40296DCCFC9010197F4
:100E3000959587959093FE028093FD0240972CF440
:100E40001092FE021092FD020BC0C092F902D092E5
:100E5000FA02E092FB02F092FC028CE090E097C272
:100E60001C821B82E1E0F0E0FA83E98380911E029C
:100E70008D3008F466C049E753E0BE016D5F7F4FD7
:100E8000CE01019668DD892B09F05BC049E753E08C
:100E9000BE016D5F7F4FCE0101965DDD019709F0C8
:100EA00050C049E753E0BE016D5F7F4FCE01019610
:100EB00052DD892B09F045C0812C912C540100E0B2
:100EC00010E080911E0290E029813A8128173907AD
:100ED0004CF549E753E0BE016D5F7F4FCE010196AF
:100EE0003ADD7C0149E753E0BE016D5F7F4FCE01E3
:100EF000019631DDF1E0EF16F10449F4892B09F593
:100F0000880C991CAA1CBB1C689480F808C0EF28A8
:100F1000C1F40197B1F4880C991CAA1CBB1C0F5F8B
:100F20001F4FCFCF1093FE020093FD028092F90273
:100F30009092FA02A092FB02B092FC0221E030E013
:100F400098C21C821B8281E090E09A838983809101
:100F5000010390910203181619060CF054C0E09199
:100F6000FF02F091000382E090E09A8389838281FE
:100F7000938189974E9708F046C0A3E0B0E0BA830A
:100F8000A983848195810B970A9708F03CC04CEBAC
:100F900051E0BE016D5F7F4FCE010196DCDC892BF5
:100FA00091F54CEB51E0BE016D5F7F4FCE01019694
:100FB000D2DC019741F5812C912C540100E010E026
:100FC00029813A8180910103909102032817390702
:100FD0000CF082C14CEB51E0BE016D5F7F4FCE0142
:100FE0000196B9DC6C010330110509F041C14CEBED
:100FF00051E0BE016D5F7F4FCE010196ACDCC8169B
:10100000D90609F435C1E091FF02F0910003828115
:101010009381C697869708F0BFC1848195814B97CD
:10102000459708F0B9C1DF0116967F0126ECE20E64
:10103000F11C20E030E040E050E060E070E080E053
:1010400090E00D911C91119709501109083011057C
:1010500008F0A2C112960D911C911397015111092C
:101060000D30110508F047C101E03AD52160149612
:10107000AE15BF0531F72093F9023093FA02409381
:10108000FB025093FC0200E246D52093F702309316
:10109000F80285E090E09093F6028093F50280E3F9
:1010A00090E09093FE028093FD028091F90290916E
:1010B000FA02A091FB02B091FC028736E8E99E0794
:1010C000EFEFAE07B10509F0D9C16CE97FEF80E021
:1010D000C2DB6CE97FEF81E0BEDB6CE97FEF82E091
:1010E000BADB6CE97FEF83E0B6DB6CE97FEF84E08D
:1010F000B2DB6CE97FEF85E0AEDB6CE97FEF86E089
:10110000AADB6CE97FEF87E0A6DB82E080931A021E
:1011100010921E0280E090E0892B09F477CD0E94A6
:10112000000074CD8091250290912602825491098D
:101130008E9708F09ECD80E090E040E050E0BA014C
:10114000FC01E95DFD4F20813181295031092930B1
:101150003105C0F08ECD8091270290912802099729
:10116000099708F081CD1092FE021092FD02409284
:10117000F9025092FA026092FB027092FC0223E0A4
:1011800030E077C1FC01E75DFD4F208131812751BF
:10119000310922313105C0F4440F551F661F771FF6
:1011A000416004968038910559F63092FE022092F3
:1011B000FD024093F9025093FA026093FB02709390
:1011C000FC0283E090E0E3C02081318126503109A8
:1011D0002730310508F04DCD440F551F661F771F8E
:1011E000E0CF20813181235131092F30310548F47E
:1011F000CC0CDD1CEE1CFF1C6894C0F802963496E3
:101200005FCD208131812A5031092930310508F024
:1012100084CDCC0CDD1CEE1CFF1CF0CF8091250290
:1012200090912602C697869708F0C8CDE9E2F2E0D1
:1012300083E090E0C12CD12C7601A0CD20813181BA
:101240002C5031092A30310508F0B8CDCC0CDD1C0A
:10125000EE1CFF1C91CD4D915C914C5051094B30CF
:10126000510508F0FDCDCC0CDD1CEE1CFF1CD4CDCF
:101270004CEB51E0BE016D5F7F4FCE0101966BDB01
:101280007C010330110561F44CEB51E0BE016D5F50
:101290007F4FCE0101965FDBE816F90609F0B3CE69
:1012A000C114D10459F4EA94EF2809F0ACCE880CAB
:1012B000991CAA1CBB1C689480F80BC0CA94CD284A
:1012C00009F0A1CEEF2809F09ECE880C991CAA1C2B
:1012D000BB1C0F5F1F4F74CE1093FE020093FD02E4
:1012E0008092F9029092FA02A092FB02B092FC0264
:1012F00082E090E04CC012960D911C91139704501F
:1013000011090530110508F047C001E0E9D3AFCE5F
:10131000A80142505109DA014D915C91495051099F
:101320004830510508F080C1BC016F5F7F4FD80184
:101330004D915C911197475051094730510508F084
:1013400061C3220F331F216002960C5F1F4F409133
:101350001E0250E04450510984179507CCF20197C2
:10136000959587959093FE028093FD028A970CF4E1
:101370005BC1C901330FAA0BBB0B8093F902909399
:10138000FA02A093FB02B093FC0289E090E09093F4
:10139000F6028093F50289CE80911E02893340F0D7
:1013A00082819381895791098335910508F4DBC1C6
:1013B00080911E02823209F4DFC0828193818957B5
:1013C00091098335910508F0DEC080911E028132BB
:1013D00008F4D9C084819581CA97899708F0D3C051
:1013E0009F012A5F3F4FC12CD12C760143E050E092
:1013F000D9016D917C916A5071096930710508F0CD
:10140000C2C0D90112966D917C91139766517109F2
:101410006131710508F024C2D701C601880F991FF8
:10142000AA1FBB1F6C017D016894C0F84E5F5F4F1F
:101430002C5F3F4F43325105D9F69F012A5B3F4F46
:10144000D9012D913C912A5031092930310508F0FC
:101450009AC0E0E1F0E0F093FE02E093FD02C0925A
:10146000F902D092FA02E092FB02F092FC0226E02E
:1014700030E03093F6022093F50217CE8836F8E973
:101480009F07FFEFAF07B10508F03BC08D3F22E09B
:1014900092072FEFA207B10579F464E670E080E0CF
:1014A000DAD964E670E081E0D6D964E670E082E0E3
:1014B000D2D964E670E014C08F369049AF4FB105C1
:1014C00009F023CE6CE97FEF80E0C5D96CE97FEFAE
:1014D00081E0C1D96CE97FEF82E0BDD96CE97FEF93
:1014E00083E0B9D964E670E084E0B5D964E670E0E1
:1014F00085E0B1D964E670E086E0ADD964E670E0DD
:1015000002CE8735E8EA9E07EFEFAE07B105F9F4A2
:1015100060E070E080E09FD960E070E081E09BD9FE
:1015200060E070E082E097D960E070E083E093D9FA
:1015300060E070E084E08FD960E070E085E08BD9F6
:1015400060E070E086E087D960E070E0DCCD8F314C
:10155000904EAF4FB10509F0D8CD64E670E080E061
:101560007AD964E670E081E076D964E670E082E0E2
:1015700072D964E670E0B7CD828193810A970997AA
:1015800008F450C11ACF828193818C549109C59778
:1015900078F480911E02843031F4848195818097A3
:1015A000479708F486C180911E02843408F068C110
:1015B00080911E02863460F1828193810C970B9793
:1015C00008F4CBC125C0D90112966D917C91139777
:1015D0006E5171096731710508F0F5C1D701C60177
:1015E000880F991FAA1FBB1F6C017D016894C0F86A
:1015F0004E5F5F4F2C5F3F4F4534510509F4C8C122
:10160000D9016D917C916C5071096B307105D8F2E4
:1016100080911E02883540F082819381855891091E
:101620008B35910508F4DFC180911E028032E1F410
:101630008281938106970697B8F4848195810997F2
:10164000099790F49F012A5F3F4FBF01625C7F4F73
:10165000C12CD12C7601D9014D915C914650510994
:101660004630510508F4DAC120910103309102039C
:1016700038872F83263031050CF447CD8F010A5F60
:101680001F4F95ECC92E9DE9D92E9CE1E92E91E8DA
:10169000F92E83E090E09E838D83D8016D917C913B
:1016A000F8013497A080B18080E090E061D3698731
:1016B0007A878B879C87B50180E090E059D34B01F6
:1016C0005C012DEC3CEC4CE45FE304D49B01AC01E9
:1016D00069857A858B859C85AED287FD17C02DECF8
:1016E0003CEC4CE45FE369857A858B859C85F2D37D
:1016F0009B01AC01C501B4019ED2E82F880FFF0BFE
:10170000EE27FF0FEE1FFF27319602C0E0E0F0E06A
:10171000A701960163E971E080E091E0C0D16F011B
:10172000FF0FEE08FF08C626D726E826F926ED812A
:10173000FE813196FE83ED830E5F1F4F2F8138852A
:10174000E217F30709F0A9CFC092F902D092FA028A
:10175000E092FB02F092FC023092FE022092FD0227
:101760008FEF9FEF14CE84819581CA97899708F0F7
:101770001FCE9F012A5F3F4FC12CD12C760143E041
:1017800050E0D9016D917C916A5071096930710501
:1017900008F00ECED90112966D917C911397665187
:1017A00071096131710570F5D701C601880F991F64
:1017B000AA1FBB1F6C017D016894C0F84E5F5F4F8C
:1017C0002C5F3F4F4B335105E1F69F012A583F4FA5
:1017D000D9012D913C912A5031092930310508F069
:1017E000E7CD2CE130E03093FE022093FD02C09261
:1017F000F902D092FA02E092FB02F092FC028AE037
:1018000090E0C5CDD90112966D917C9113976650E9
:1018100071096730710508F0CBCDCC0CDD1CEE1CD6
:10182000FF1CCCCF20911E02CF01820F911D820F91
:10183000911DDC0112978D919C910A97099708F0F0
:10184000BCCD1092FE021092FD024092F90250921D
:10185000FA026092FB027092FC0286E090E097CD63
:10186000D90112966D917C9113976650710967307A
:10187000710508F088CECC0CDD1CEE1CFF1CD6CD0B
:101880008481958189549109C39708F091CE9F0175
:101890002A5F3F4FBF016A577F4FC12CD12C760181
:1018A000D9014D915C914950510949305105D0F011
:1018B0007FCE868197810997099708F074CE1092A0
:1018C000FE021092FD024092F9025092FA026092DA
:1018D000FB027092FC02A7E0B0E0B093F602A09386
:1018E000F502E3CBD90112964D915C9113974651C5
:1018F00051094131510530F112964D915C91139788
:10190000465051094730510508F052CECC0CDD1C31
:10191000EE1CFF1C2C5F3F4F2617370709F630924D
:10192000FE022092FD02C092F902D092FA02E092E9
:10193000FB02F092FC02E7E0F0E0F093F602E093A5
:10194000F502B3CBD701C601880F991FAA1FBB1F91
:101950006C017D016894C0F8DDCF84819581099781
:10196000099708F055CE868197818C974F9708F09C
:101970004FCE8085918589974D9708F049CE9F017C
:10198000265F3F4FC12CD12C760145E050E038CE88
:101990009F0126573F4FD9012D913C912C50310981
:1019A0002B30310508F034CE3092FE022092FD0239
:1019B000C092F902D092FA02E092FB02F092FC028D
:1019C00088E090E0E4CCD90112966D917C91139758
:1019D000695071096930710508F01ACECC0CDD1C14
:1019E000EE1CFF1C05CE84819581825491098E974F
:1019F00008F01ACE8F01045C1F4F8DE190E020E0CB
:101A000030E0A5CC4D915C914851510942315105CE
:101A100010F0CB01A4CC220F331F96CCD901129623
:101A20004D915C911397495151094331510508F586
:101A3000D701C601880F991FAA1FBB1F6C017D012A
:101A40006894C0F82C5F3F4F2617370709F003CE84
:101A50002EE030E03093FE022093FD02C092F902A6
:101A6000D092FA02E092FB02F092FC028FE090E04A
:101A70008ECCD90112964D915C9113974950510922
:101A80004930510508F0F0CDCC0CDD1CEE1CFF1CDC
:101A9000D9CFEAE1F2E086E3818313820895DB0186
:101AA0008F939F9313D0BF91AF91A29F800D911DF3
:101AB000A39F900DB29F900D11240895EE0FFF1F6C
:101AC000881F8BBF0790F691E02D199440D0A59FF9
:101AD000900DB49F900DA49F800D911D1124089529
:101AE0000F93083090F0982F872F762F652F542F63
:101AF000432F322F22270850F4CF220F331F441FC9
:101B0000551F661F771F881F991F0A95B2F70F91FF
:101B1000089597FB10F8169400080F93083098F07A
:101B20000850232F342F452F562F672F782F892FBA
:101B3000902DF4CF05949795879577956795579550
:101B40004795379527950A95AAF70F910895A29F73
:101B5000B001B39FC001A39F700D811D1124911D81
:101B6000B29F700D811D1124911D08955058BB27FF
:101B7000AA270ED075C166D130F06BD120F031F4B8
:101B80009F3F11F41EF45BC10EF4E095E7FB51C1D9
:101B9000E92F77D180F3BA17620773078407950797
:101BA00018F071F49EF58FC10EF4E0950B2EBA2F4C
:101BB000A02D0B01B90190010C01CA01A001112453
:101BC000FF27591B99F0593F50F4503E68F11A16FF
:101BD000F040A22F232F342F4427585FF3CF469590
:101BE00037952795A795F0405395C9F77EF41F16B2
:101BF000BA0B620B730B840BBAF09150A1F0FF0F7C
:101C0000BB1F661F771F881FC2F70EC0BA0F621F67
:101C1000731F841F48F4879577956795B795F79557
:101C20009E3F08F0B3CF9395880F08F09927EE0FE9
:101C3000979587950895D9D008F481E008950CD040
:101C40000FC107D140F0FED030F021F45F3F19F012
:101C5000F0C0511139C1F3C014D198F39923C9F3DD
:101C60005523B1F3951B550BBB27AA2762177307A2
:101C7000840738F09F5F5F4F220F331F441FAA1F56
:101C8000A9F333D00E2E3AF0E0E830D09150504016
:101C9000E695001CCAF729D0FE2F27D0660F771FC4
:101CA000881FBB1F261737074807AB07B0E809F0A6
:101CB000BB0B802DBF01FF2793585F4F2AF09E3F3B
:101CC000510568F0B6C000C15F3FECF3983EDCF30D
:101CD000869577956795B795F7959F5FC9F7880FB4
:101CE000911D9695879597F90895E1E0660F771F06
:101CF000881FBB1F621773078407BA0720F0621B97
:101D0000730B840BBA0BEE1F88F7E095089504D08F
:101D10006894B111D9C00895BCD088F09F5790F055
:101D2000B92F9927B751A0F0D1F0660F771F881F00
:101D3000991F1AF0BA95C9F712C0B13081F0C3D01B
:101D4000B1E00895C0C0672F782F8827B85F39F0B9
:101D5000B93FCCF3869577956795B395D9F73EF45F
:101D600090958095709561957F4F8F4F9F4F089507
:101D7000E89409C097FB3EF4909580957095619525
:101D80007F4F8F4F9F4F9923A9F0F92F96E9BB27DB
:101D90009395F695879577956795B795F111F8CF57
:101DA000FAF4BB0F11F460FF1BC06F5F7F4F8F4FC2
:101DB0009F4F16C0882311F096E911C0772321F0B8
:101DC0009EE8872F762F05C0662371F096E8862F50
:101DD00070E060E02AF09A95660F771F881FDAF7A7
:101DE000880F9695879597F90895990F0008550FD4
:101DF000AA0BE0E8FEEF16161706E807F907C0F091
:101E000012161306E407F50798F0621B730B840B98
:101E1000950B39F40A2661F0232B242B252B21F472
:101E200008950A2609F4A140A6958FEF811D811D12
:101E3000089597F99F6780E870E060E008959FEF4C
:101E400080EC089500240A94161617061806090651
:101E5000089500240A941216130614060506089520
:101E6000092E0394000C11F4882352F0BB0F40F4A8
:101E7000BF2B11F460FF04C06F5F7F4F8F4F9F4FE8
:101E8000089557FD9058440F551F59F05F3F71F06A
:101E90004795880F97FB991F61F09F3F79F08795D1
:101EA0000895121613061406551FF2CF4695F1DF5A
:101EB00008C0161617061806991FF1CF86957105EA
:101EC000610508940895E894BB2766277727CB011E
:101ED00097F908950BD0C4CFB5DF28F0BADF18F01A
:101EE000952309F0A6CFABCF1124EECFCADFA0F324
:101EF000959FD1F3950F50E0551F629FF001729F9F
:101F0000BB27F00DB11D639FAA27F00DB11DAA1FBD
:101F1000649F6627B00DA11D661F829F2227B00D0A
:101F2000A11D621F739FB00DA11D621F839FA00D95
:101F3000611D221F749F3327A00D611D231F849FE5
:101F4000600D211D822F762F6A2F11249F5750403C
:101F50008AF0E1F088234AF0EE0FFF1FBB1F661FD7
:101F6000771F881F91505040A9F79E3F510570F090
:101F700060CFAACF5F3FECF3983EDCF38695779570
:101F80006795B795F795E7959F5FC1F7FE2B880F8B
:0E1F9000911D9695879597F90895F894FFCFC7
:101F9E00FF3533312F27292B2D17191B1D1F2123F9
:0A1FAE0025090807060504030200D8
:020000023000CC
:10E000000D9489F10D94B2F10D94B2F10D94B2F129
:10E010000D94B2F10D94B2F10D94B2F10D94B2F1F0
:10E020000D94B2F10D94B2F10D94B2F10D94B2F1E0
:10E030000D94B2F10D94B2F10D94B2F10D94B2F1D0
:10E040000D94B2F10D94B2F10D94B2F10D94B2F1C0
:10E050000D94B2F10D94B2F10D94B2F10D94B2F1B0
:10E060000D94B2F10D94B2F10D94B2F10D94B2F1A0
:10E070000D94B2F10D94B2F10D94B2F10D94B2F190
:10E080000D94B2F10D94B2F10D94B2F10D94B2F180
:10E090000D94B2F10D94B2F10D94B2F10D94B2F170
:10E0A0000D94B2F10D94B2F10D94B2F10D94B2F160
:10E0B0000D94B2F10D94B2F10D94B2F10D94B2F150
:10E0C0000D94B2F10D94B2F10D94B2F10D94B2F140
:10E0D0000D94B2F10D94B2F10D94B2F10D94B2F130
:10E0E0000D94B2F141546D656761323536300041AF
:10E0F000726475696E6F206578706C6F72657220DE
:10E1000073746B3530305632206279204D4C530099
:10E11000426F6F746C6F616465723E004875683F52
:10E1200000436F6D70696C6564206F6E203D200048
:10E130004350552054797065202020203D20005FF9
:10E140005F4156525F415243485F5F3D2000415658
:10E1500052204C696243205665723D20004743437C
:10E160002056657273696F6E203D20004350552024
:10E1700049442020202020203D20004C6F7720663D
:10E18000757365202020203D20004869676820665F
:10E190007573652020203D200045787420667573D6
:10E1A00065202020203D20004C6F636B2066757336
:10E1B000652020203D20004D617220203720323024
:10E1C000313300312E362E3800342E332E350056A2
:10E1D00023202020414444522020206F7020636F70
:10E1E00064652020202020696E73747275637469E1
:10E1F0006F6E2061646472202020496E74657272B3
:10E20000757074006E6F20766563746F7200726A49
:10E210006D702020006A6D70200057686174207056
:10E220006F72743A00506F7274206E6F7420737541
:10E2300070706F72746564004D7573742062652030
:10E2400061206C6574746572002000577269747483
:10E25000696E672045450052656164696E672045B7
:10E26000450045452065727220636E743D00504F35
:10E27000525400303D5A65726F2061646472003FF1
:10E280003D43505520737461747300403D454550C3
:10E29000524F4D207465737400423D426C696E6B41
:10E2A000204C454400453D44756D70204545505215
:10E2B0004F4D00463D44756D7020464C415348001B
:10E2C000483D48656C70004C3D4C69737420492F83
:10E2D0004F20506F72747300513D51756974005234
:10E2E0003D44756D702052414D00563D73686F7707
:10E2F00020696E7465727275707420566563746FF0
:10E30000727300593D506F727420626C696E6B00BD
:10E310002A0011241FBECFEFD1E2DEBFCDBF01E046
:10E320000CBF12E0A0E0B2E0EEE1FDEF03E00BBFB6
:10E3300002C007900D92A030B107D9F712E0A0E01B
:10E34000B2E001C01D92AE30B107E1F70F9460F367
:10E350000D948DFE01E20EBF0FEF0DBF11241FBE05
:10E360000D9460F30D9400F020E030E040ED57E0B4
:10E3700005C0FA013197F1F72F5F3F4F2817390792
:10E38000C0F308959C01260F311DC901A0E0B0E043
:10E390002F5F3F4FABBFFC018791882361F08093D3
:10E3A000C6008091C00086FFFCCF8091C0008064D1
:10E3B0008093C000EACF08958DE08093C6008091DD
:10E3C000C00086FFFCCF8091C00080648093C000B5
:10E3D0008AE08093C6008091C00086FFFCCF8091C8
:10E3E000C00080648093C00008950F94C2F10F9420
:10E3F000DCF10895FC019081992359F09093C600B7
:10E400008091C00086FFFCCF8091C0008064809323
:10E41000C0003196992379F70895282F982F929567
:10E420009F70892F805D8A3308F0895F8093C600D2
:10E430008091C00086FFFCCF8091C00080648093F3
:10E44000C000822F8F70982F905D9A3308F0995FEB
:10E450009093C6008091C00086FFFCCF8091C000E1
:10E4600080648093C00008959C01FB01853691056E
:10E470001CF46330710594F0C90164E670E00F94F8
:10E480002EFE605D7F4F6093C6008091C00086FFC6
:10E49000FCCF8091C00080648093C0002B30310598
:10E4A00014F43297B4F0C90164E670E00F942EFEC4
:10E4B0006AE070E00F942EFE605D7F4F6093C600AF
:10E4C0008091C00086FFFCCF8091C0008064809363
:10E4D000C000C9016AE070E00F942EFEC0968093E0
:10E4E000C6008091C00086FFFCCF8091C000806490
:10E4F0008093C00008951F93182F8EE692EE60E07F
:10E500000F94C2F11093C6008091C00086FFFCCF2B
:10E510008091C00080648093C0000F94DCF11F9153
:10E5200008952F923F924F925F926F927F928F92B7
:10E530009F92AF92BF92CF92DF92EF92FF920F9392
:10E540001F93DF93CF93CDB7DEB762970FB6F894E2
:10E55000DEBF0FBECDBF382E622ECA01DB015C01CB
:10E560006D01772420E2222E2E010894411C511CBB
:10E570008BC081E0A81680E0B80681E0C80680E084
:10E58000D80628F0C601AA27BB270F940DF2BB2797
:10E59000AD2D9C2D8B2D0F940DF28A2D0F940DF225
:10E5A0002092C6008091C00086FFFCCF8091C00001
:10E5B00080648093C0009DE29093C6008091C0006B
:10E5C00086FFFCCF8091C00080648093C0002092C1
:10E5D000C6008091C00086FFFCCF8091C00080649F
:10E5E0008093C00019828601750188249924A1E0D6
:10E5F0003A1651F03A1620F0B2E03B1661F409C029
:10E600000BBFF701779007C0C7010F9477FE782EF4
:10E6100002C0F7017080872D0F940DF22092C60082
:10E620008091C00086FFFCCF8091C0008064809301
:10E63000C000872D8052F401EF70F0708F3520F408
:10E64000E40DF51D708204C0E40DF51D8EE280839B
:10E650000894E11CF11C011D111D0894811C911CE2
:10E6600090E18916910409F0C2CF80E190E0A0E02A
:10E67000B0E0A80EB91ECA1EDB1E198AC2010F9493
:10E68000FAF10F94DCF16A94662009F072CF629679
:10E690000FB6F894DEBF0FBECDBFCF91DF911F91B3
:10E6A0000F91FF90EF90DF90CF90BF90AF909F9031
:10E6B0008F907F906F905F904F903F902F90089534
:10E6C0002F923F924F925F926F927F928F929F9282
:10E6D000AF92BF92CF92DF92EF92FF920F931F9370
:10E6E000DF93CF93CDB7DEB7CD53D1400FB6F894BB
:10E6F000DEBF0FBECDBF01E20EBF0FEF0DBF94B75F
:10E70000F894A89514BE80916000886180936000A1
:10E7100010926000789493FF05C0E0910002F091A0
:10E7200001021995279A2F9A8091C00082608093E8
:10E73000C00080E18093C40088E18093C1000000A4
:10E74000EE24FF24870144E0A42EB12CCC24DD2448
:10E7500024C0C5010197F1F70894E11CF11C011DCB
:10E76000111D21E2E2162EE4F20620E0020720E06D
:10E77000120718F031E0C32ED12CC801B70127ECE5
:10E780003BE140E050E00F9441FE611571058105C9
:10E79000910519F485B1805885B98091C00087FD35
:10E7A00003C0C114D104A9F2A6014F5F5F4FC25E3E
:10E7B000DE4F59834883CE51D140C25EDE4F8881FF
:10E7C0009981CE51D140019711F00D9410FEC05D9A
:10E7D000DE4F19821882C053D14060E0C15DDE4F28
:10E7E0001882CF52D14088249924C35DDE4F19820C
:10E7F0001882CD52D140C05EDE4F188219821A8233
:10E800001B82C052D140CE5CDE4F188219821A8220
:10E810001B82C253D140EE24FF2487010BBFF701B6
:10E8200007911691C45CDE4F19830883CC53D14005
:10E830000D940BFEC25EDE4F28813981CE51D1404E
:10E840002130310509F52091C600C25EDE4F1982E4
:10E850001882CE51D14022C02F5F3F4F4F4F5F4FA4
:10E86000213082E138078AE7480780E0580780F0C6
:10E87000C45CDE4FE881F981CC53D140EF5FFF4F9C
:10E8800019F0EE27FF27099420E030E040E050E047
:10E890008091C00087FFE0CF2091C600C35DDE4FAE
:10E8A00048815981CD52D1404F5F5F4FC35DDE4FEC
:10E8B00059834883CD52D140213209F063C64A3092
:10E8C000510508F05FC60894811C911C53E0851621
:10E8D000910409F059C600E010E018C081E280936D
:10E8E000C6008091C00086FFFCCF8091C00080648C
:10E8F0008093C0002F5F3F4F2931310579F70F9486
:10E90000DCF10F5F1F4F0530110519F020E030E0FA
:10E91000E5CF10920A0210920B0210920C02109294
:10E920000D02109206021092070210920802109235
:10E930000902109202021092030210920402109235
:10E9400005028FEE90EE60E00F94F5F180E191EE1C
:10E9500060E00F94C2F18091C00087FFFCCF9091DE
:10E96000C600903608F09F759032B8F09093C600BC
:10E970008091C00086FFFCCF8091C00080648093AE
:10E98000C000A0E2A093C6008091C00086FFFCCF2B
:10E990008091C00080648093C000983409F4D7C18E
:10E9A0009934B8F4923409F459C1933458F490333B
:10E9B00019F1903308F4E3C59F33A1F1903409F0C5
:10E9C000DEC5BDC0953409F470C1963409F0D7C5D1
:10E9D00098C1923509F42BC2933538F49C3409F46C
:10E9E000F5C1913509F0CBC518C2963509F445C279
:10E9F000993509F0C4C567C483E792EE62E00F94CD
:10EA0000F5F110920602109207021092080210927D
:10EA1000090210920A0210920B0210920C0210923C
:10EA20000D0213C18FE792EE62E00F94F5F18FEEC5
:10EA300090EE60E00F94F5F181E291EE60E00F94CA
:10EA4000C2F187EB91EE60E00F94F5F180E391EE77
:10EA500060E00F94C2F184EE90EE60E00F94F5F167
:10EA60008FE391EE60E00F94C2F186E090E061E008
:10EA700070E00F9434F20F94DCF18DE591EE60E0DC
:10EA80000F94C2F189EC91EE60E00F94F5F18EE401
:10EA900091EE60E00F94C2F183EC91EE60E00F9490
:10EAA000F5F18CE691EE60E00F94C2F18EE10F94E7
:10EAB0000DF288E90F940DF281E00F940DF20F949E
:10EAC000DCF18BE791EE60E00F94C2F119E0E0E039
:10EAD000F0E010935700E4918E2F0F940DF20F94F5
:10EAE000DCF18AE891EE60E00F94C2F1E3E0F0E03F
:10EAF00010935700E4918E2F0F940DF20F94DCF1D8
:10EB000089E991EE60E00F94C2F1E2E0F0E0109349
:10EB10005700E4918E2F0F940DF20F94DCF188EAE8
:10EB200091EE60E00F94C2F1E1E0F0E01093570045
:10EB30001491812F0F940DF20F94DCF107CF8BE825
:10EB400092EE62E00F94F5F18BE492EE60E00F94A8
:10EB5000F5F10F94DCF100E010E019C0C8016F2D51
:10EB60000F947FFEFF2031F489E492EE60E00F9471
:10EB7000C2F10BC0F092C6008091C00086FFFCCFAE
:10EB80008091C00080648093C0000F5F1F4FC80158
:10EB900081519F41A0E0B0E0ABBFFC01F790BAE229
:10EBA000FB1621F0E2E000301E07C1F60F94DCF105
:10EBB0000F94DCF187E592EE60E00F94F5F10F948D
:10EBC000DCF1CC24DD2400E010E01EC0C8010F946D
:10EBD00077FEF82E882331F489E492EE60E00F94FA
:10EBE000C2F10BC08093C6008091C00086FFFCCFAD
:10EBF0008091C00080648093C000FE1419F00894D6
:10EC0000C11CD11C0F5F1F4FC80181519F41A0E063
:10EC1000B0E0ABBFFC01E790FAE2EF1621F022E092
:10EC20000030120799F60F94DCF10F94DCF182E6C4
:10EC300092EE60E00F94C2F1C60161E070E00F94C3
:10EC400034F20F94DCF10F94DCF110920202109276
:10EC50000302109204021092050278CE89E992EE26
:10EC600062E00F94F5F1279A2F9A16C02F9880E052
:10EC700090E0E0EDF7E03197F1F7019684369105E9
:10EC8000C1F72F9A80E090E0E0EDF7E03197F1F7DF
:10EC9000019684369105C1F78091C00087FFE6CFC9
:10ECA0008091C00087FFFCCF64C485EA92EE62E0E9
:10ECB0000F94F5F140910202509103026091040219
:10ECC0007091050281E020E10F9491F2809102029F
:10ECD00090910302A0910402B091050280509F4FD1
:10ECE000AF4FBF4F8093020290930302A0930402A0
:10ECF000B093050280509041A040B04008F426CE69
:10ED0000A4CF83EB92EE62E00F94F5F140910602FE
:10ED100050910702609108027091090280E020E1A1
:10ED20000F9491F28091060290910702A09108023F
:10ED3000B091090280509F4FAF4FBF4F80930602A2
:10ED400090930702A0930802B0930902FFCD80ECD4
:10ED500092EE62E00F94F5F183E792EE60E00F949B
:10ED6000F5F18FE792EE60E00F94F5F18BE892EE0B
:10ED700060E00F94F5F189E992EE60E00F94F5F10F
:10ED800085EA92EE60E00F94F5F183EB92EE60E09D
:10ED90000F94F5F180EC92EE60E00F94F5F187ECC2
:10EDA00092EE60E00F94F5F188ED92EE60E00F9442
:10EDB000F5F18FED92EE60E00F94F5F18AEE92EEB0
:10EDC00060E00F94F5F183E093EEBDCD87EC92EE19
:10EDD00062E00F94F5F181E40F947BF282E40F94EA
:10EDE0007BF283E40F947BF284E40F947BF285E45E
:10EDF0000F947BF286E40F947BF287E40F947BF20E
:10EE000088E40F947BF28AE40F947BF28BE40F94F6
:10EE10007BF28CE40F947BF299CD88ED92EE62E068
:10EE20000F94F5F1772473948824992409C48FED05
:10EE300092EE62E00F94F5F140910A0250910B02BC
:10EE400060910C0270910D0282E020E10F9491F22A
:10EE500080910A0290910B02A0910C02B0910D02D8
:10EE600080509F4FAF4FBF4F80930A0290930B0289
:10EE7000A0930C02B0930D0269CD8AEE92EE62E08F
:10EE80000F94F5F184EE90EE60E00F94F5F18FECC5
:10EE900091EE60E00F94F5F1662477244301CC5D98
:10EEA000DE4F19821882C452D140D401C301B695F5
:10EEB000A79597958795CA5DDE4F88839983AA8326
:10EEC000BB83C652D140CC5DDE4FA881B981C4520C
:10EED000D1401196CC5DDE4FB983A883C452D14096
:10EEE000CD0162E070E00F9434F2B0E2B093C6005E
:10EEF0008091C00086FFFCCF8091C0008064809329
:10EF0000C000EDE2E093C6008091C00086FFFCCF18
:10EF10008091C00080648093C000F0E2F093C6004E
:10EF20008091C00086FFFCCF8091C00080648093F8
:10EF3000C000CA5DDE4FE880F9800A811B81C6529D
:10EF4000D140BB27A12F902F8F2D0F940DF2CA5DBA
:10EF5000DE4F8881C652D1400F940DF2B0E2FB2EF5
:10EF6000F092C6008091C00086FFFCCF8091C00067
:10EF700080648093C0000DE30093C6008091C000C0
:10EF800086FFFCCF8091C00080648093C00010E2B7
:10EF90001093C6008091C00086FFFCCF8091C00016
:10EFA00080648093C0008BBEF3012791C65DDE4F65
:10EFB0002883CA52D140A22EBB24CC24DD2408943D
:10EFC000611C711C811C911C8BBEF3018791282E42
:10EFD0003324442455240894611C711C811C911C09
:10EFE0008BBEF3013791C55DDE4F3883CB52D140E4
:10EFF0000894611C711C811C911C8BBEF30147910C
:10F00000C45DDE4F4883CC52D140ADEFEA2EAFEF66
:10F01000FA2EAFEF0A2FAFEF1A2F6E0C7F1C801E57
:10F02000911E142D032DF22CEE24EA0CFB1C0C1D5A
:10F030001D1D0F940DF220E22093C6008091C000A8
:10F0400086FFFCCF8091C00080648093C000C65DC5
:10F05000DE4F8881CA52D1400F940DF230E23093D6
:10F06000C6008091C00086FFFCCF8091C000806404
:10F070008093C000C45DDE4F8881CC52D1400F9494
:10F080000DF240E24093C6008091C00086FFFCCFA5
:10F090008091C00080648093C000C55DDE4F888190
:10F0A000CB52D1400F940DF250E25093C6008091A4
:10F0B000C00086FFFCCF8091C00080648093C000B8
:10F0C0008FEFE8168FEFF80680E0080780E018075A
:10F0D00031F484E092EE60E00F94C2F1DFC0D80119
:10F0E000C7018070907CA070B0708050904CA040A0
:10F0F000B040D1F52FEF3FE340E050E0E222F322B1
:10F1000004231523CA5DDE4FA880B980CA80DB8046
:10F11000C652D140AE0CBF1CC01ED11EAA0CBB1CD7
:10F12000CC1CDD1C8EE092EE60E00F94C2F1BB2798
:10F13000A12F902F8F2D0F940DF28E2D0F940DF285
:10F1400030E23093C6008091C00086FFFCCF8091F2
:10F15000C00080648093C0004EE34093C60080915D
:10F16000C00086FFFCCF87C08EE09EEFA0E0B0E03D
:10F17000E822F9220A231B239CE0E91694E9F90608
:10F1800090E0090790E0190709F088C0C45DDE4FE0
:10F19000A881CC52D140EA2EFF2400E010E0102FCD
:10F1A0000F2DFE2CEE24C55DDE4FB881CB52D14031
:10F1B000EB0EF11C011D111DD601C501817090706F
:10F1C000A070B070DC0199278827E80EF91E0A1F8D
:10F1D0001B1F20EF30E040E050E0A222B322C42207
:10F1E000D52241E1AA0CBB1CCC1CDD1C4A95D1F7F1
:10F1F000EA0CFB1C0C1D1D1D81E090E0A0E0B0E0BE
:10F20000282239224A225B2235E1220C331C441C7D
:10F21000551C3A95D1F7E20CF31C041D151D57013E
:10F220006801AA0CBB1CCC1CDD1C85E192EE60E0E1
:10F230000F94C2F1C801AA27BB270F940DF2BB2778
:10F24000A12F902F8F2D0F940DF28E2D0F940DF274
:10F2500090E29093C6008091C00086FFFCCF809121
:10F26000C00080648093C000AEE3A093C60080918C
:10F27000C00086FFFCCF8091C00080648093C000F6
:10F28000C601AA27BB270F940DF2BB27AD2D9C2DDD
:10F290008B2D0F940DF28A2D0F940DF20F94DCF14B
:10F2A000CC5DDE4FE881F981C452D140F99709F471
:10F2B0004DCBF4E0EF2EF12C012D112D6E0C7F1CA7
:10F2C000801E911EF2CD83E093EE62E00F94F5F183
:10F2D0008AE192EE60E00F94C2F18091C00087FF56
:10F2E000FCCF1091C6001F751093C6008091C0001E
:10F2F00086FFFCCF8091C00080648093C0000F9493
:10F30000DCF1812F81548A3108F036C1163409F4BA
:10F3100095C0173490F4133409F44EC0143430F40B
:10F320001134F1F0123409F01DC130C0143409F465
:10F3300059C0153409F016C16BC01A3409F4C4C0A1
:10F340001B3438F4173409F48FC0183409F00AC19B
:10F35000A1C01B3409F4D2C01C3409F003C1E8C0B9
:10F360008FEF81B90DC082B1809582B980E090E0C5
:10F37000E0EDF7E03197F1F70196883C9105C1F790
:10F380008091C00087FFEFCF12B8EFC08FEF84B934
:10F390000DC085B1809585B980E090E0E0EDF7E0A3
:10F3A0003197F1F70196883C9105C1F78091C00033
:10F3B00087FFEFCF15B8D9C08FEF87B90DC088B1DF
:10F3C000809588B980E090E0E0EDF7E03197F1F7C3
:10F3D0000196883C9105C1F78091C00087FFEFCF6F
:10F3E00018B8C3C08FEF8AB90DC08BB180958BB9A7
:10F3F00080E090E0E0EDF7E03197F1F70196883C8E
:10F400009105C1F78091C00087FFEFCF1BB8ADC059
:10F410008FEF8DB90DC08EB180958EB980E090E0F0
:10F42000E0EDF7E03197F1F70196883C9105C1F7DF
:10F430008091C00087FFEFCF1EB897C08FEF80BBD1
:10F440000DC081B3809581BB80E090E0E0EDF7E0F6
:10F450003197F1F70196883C9105C1F78091C00082
:10F4600087FFEFCF11BA81C08FEF83BB0DC084B38C
:10F47000809584BB80E090E0E0EDF7E03197F1F714
:10F480000196883C9105C1F78091C00087FFEFCFBE
:10F4900014BA6BC08FEF809301010FC080910201FD
:10F4A00080958093020180E090E0E0EDF7E03197F5
:10F4B000F1F70196883C9105C1F78091C00087FF64
:10F4C000EDCF1092020151C08FEF809304010FC065
:10F4D0008091050180958093050180E090E0E0ED4A
:10F4E000F7E03197F1F70196883C9105C1F78091DB
:10F4F000C00087FFEDCF1092050137C08FEF8093DA
:10F5000007010FC08091080180958093080180E079
:10F5100090E0E0EDF7E03197F1F70196883C910536
:10F52000C1F78091C00087FFEDCF109208011DC088
:10F530008FEF80930A010FC080910B01809580931B
:10F540000B0180E090E0E0EDF7E03197F1F70196F4
:10F55000883C9105C1F78091C00087FFEDCF1092E4
:10F560000B0103C085E292EEEEC98091C00087FFD7
:10F57000FCCF8091C600EAC988E392EEE4C98CE131
:10F5800091EEE1C988249924933011F1943028F444
:10F59000913089F09230B8F408C0953061F195301F
:10F5A000F0F0963009F048C043C02B3109F042C951
:10F5B00091E06BE13FC96227C15DDE4F2883CF52E6
:10F5C000D14092E037C9B22FA0E0622793E032C960
:10F5D000822F90E0A82BB92B622794E02BC92E3004
:10F5E00009F039C3622795E0C05DDE4F19821882A9
:10F5F000C053D1401FC9E1E0F0E0EC0FFD1FC05D3A
:10F60000DE4F08811981C053D140E00FF11F2083E4
:10F610000F5F1F4FC05DDE4F19830883C053D14079
:10F6200062270A171B0709F005C9D80196E002C92D
:10F63000261709F010C303C0973009F0FBC87724E0
:10F640009981933109F412C19431C8F4963009F4C8
:10F65000D8C0973050F4923009F406C1933009F4C1
:10F660006DC0913009F059C253C0913109F477C08F
:10F67000923108F0BBC0903109F04FC2F5C098310B
:10F6800009F487C0993150F4953109F4EFC09531F0
:10F6900008F4C6C1963109F040C2C2C19A3109F4DA
:10F6A0006CC09A3108F491C09B3109F45BC09D3164
:10F6B00009F033C29D81903359F48F81882311F46E
:10F6C0009EE11CC0813011F091E018C098E916C08D
:10F6D000892F807591F0903539F4E0E0F0E089E011
:10F6E0008093570094910AC0983539F4E3E0F0E034
:10F6F00089E080935700949101C090E01A821B82A8
:10F700008D818C831D829E831F8227E030E009C299
:10F710001A8288E08B8381E48C8386E58D8382E581
:10F720008E8389E48F8383E5888780E589878FE5E9
:10F730008A8782E38B872BE030E0F3C18A818139AD
:10F7400041F0823941F0803911F48FE005C080E04A
:10F7500003C082E001C08AE01A828B8344C0772410
:10F76000739482C08D81882311F48EE12CC0813086
:10F7700011F081E028C088E926C01A82E1E0F0E0BB
:10F7800089E08093570084918B831C8224E030E0D1
:10F79000C8C18B81803589F48C81883039F4E2E0EE
:10F7A000F0E089E08093570084910DC0E0E0F0E044
:10F7B00089E080935700849106C0E3E0F0E089E09F
:10F7C0008093570084911A82DFCF8D81836C99E0FA
:10F7D000E1E0F0E0082E90935700E89507B600FCB2
:10F7E000FDCF1A821B8223E030E09BC180EC8A832C
:10F7F000CE5CDE4F188219821A821B82C253D1401E
:10F800008EC18A8190E0A0E0B0E0582F44273327D2
:10F8100022278B8190E0A0E0B0E0DC0199278827C7
:10F82000282B392B4A2B5B2B8D8190E0A0E0B0E098
:10F83000282B392B4A2B5B2B8C8190E0A0E0B0E089
:10F84000BA2FA92F982F8827282B392B4A2B5B2BCF
:10F85000220F331F441F551FC05EDE4F288339839C
:10F860004A835B83C052D1401A8259C13A81C95C34
:10F87000DE4F3883C753D140CA5CDE4F1882C6536F
:10F88000D1408B81C82EDD24CA5CDE4F488159816E
:10F89000C653D140C42AD52A933109F082C0CE5C28
:10F8A000DE4F88819981AA81BB81C253D1408050AB
:10F8B000904CA340B04030F583E0CE5CDE4FE88052
:10F8C000F9800A811B81C253D140F70100935B008C
:10F8D00080935700E89507B600FCFDCFCE5CDE4F65
:10F8E000088119812A813B81C253D14000501F4FAA
:10F8F0002F4F3F4FCE5CDE4F088319832A833B8313
:10F90000C253D140C05EDE4F488159816A817B81FC
:10F91000C052D140DE011B9631E08C9111962C91A2
:10F9200011971296C75CDE4F2883C953D140C85C3B
:10F93000DE4F1882C853D14090E0C85CDE4FE881AA
:10F94000F981C853D1408E2B9F2B0C01FA01609393
:10F950005B0030935700E89511244E5F5F4F6F4F67
:10F960007F4F0EEFE02E0FEFF02ECE0CDF1CC114F8
:10F97000D10499F685E0C05EDE4F088119812A81A5
:10F980003B81C052D140F80120935B008093570027
:10F99000E89507B600FCFDCF81E180935700E8951C
:10F9A00035C0C05EDE4F88819981AA81BB81C0527B
:10F9B000D140B695A795979587957C018601ABE0D8
:10F9C000AA2EB12CAC0EBD1E0BC0D5016D915D01F0
:10F9D000C7010F947FFE0894E11CF11C01501040F8
:10F9E0000115110591F7A60160E070E0440F551F65
:10F9F000661F771FC05EDE4FE880F9800A811B8199
:10FA0000C052D1404E0D5F1D601F711F1A82C05E33
:10FA1000DE4F488359836A837B83C052D1407FC0C5
:10FA2000FA80C55CDE4FF882CB53D140C65CDE4F16
:10FA30001882CA53D1408B81C82EDD24C65CDE4FAC
:10FA400008811981CA53D140C02AD12A1A828981DA
:10FA5000BE016D5F7F4F843121F59601C05EDE4FA0
:10FA6000E880F9800A811B81C052D1400BBFF701A9
:10FA700087919691DB018C9311969C936E5F7F4FDB
:10FA8000D801C7010296A11DB11DC05EDE4F88835B
:10FA90009983AA83BB83C052D14022503040F1F6F3
:10FAA00036C0C05EDE4F288139814A815B81C052F9
:10FAB000D1400894C108D108760100E010E0089414
:10FAC000C11CD11C0894E11CF11C011D111DE20E8A
:10FAD000F31E041F151F21BDBB27A52F942F832FB5
:10FAE00082BD2F5F3F4F4F4F5F4FF89A80B5DB01CC
:10FAF0008D93BD012E153F054007510761F7C05E8C
:10FB0000DE4F288339834A835B83C052D1409601FC
:10FB10002D5F3F4FFB01108204C080EC8A8322E0FE
:10FB200030E08BE18093C6008091C00086FFFCCF5F
:10FB30008091C00080648093C000C15DDE4FF88179
:10FB4000CF52D140F093C6008091C00086FFFCCF19
:10FB50008091C00080648093C000432F3093C60022
:10FB60008091C00086FFFCCF8091C00080648093AC
:10FB7000C000922F2093C6008091C00086FFFCCF6A
:10FB80008091C00080648093C0008EE08093C600A6
:10FB90008091C00086FFFCCF8091C000806480937C
:10FBA000C00065E1C15DDE4FE880CF52D1406E25D7
:10FBB00069276427FE01319610C090819093C6009A
:10FBC0008091C00086FFFCCF31968091C000806498
:10FBD0008093C0006927215030402115310569F715
:10FBE0006093C6008091C00086FFFCCF8091C0006A
:10FBF00080648093C00085B1805885B9772081F4F6
:10FC0000C15DDE4F0881CF52D1400F5FC15DDE4F35
:10FC10000883CF52D14090E0A0E0B0E00D941AF4F8
:10FC200027982F9880E090E020ED37E0F901319798
:10FC3000F1F7019684369105C9F700008091C00064
:10FC40008D7F8093C00081E180935700E895EE2777
:10FC5000FF270994FFCF90E00D941AF497FB092E2B
:10FC600007260AD077FD04D02ED006D000201AF443
:10FC7000709561957F4F0895F6F7909581959F4F08
:10FC80000895A1E21A2EAA1BBB1BFD010DC0AA1FDD
:10FC9000BB1FEE1FFF1FA217B307E407F50720F0F5
:10FCA000A21BB30BE40BF50B661F771F881F991F70
:10FCB0001A9469F760957095809590959B01AC01B9
:10FCC000BD01CF010895AA1BBB1B51E107C0AA1FAC
:10FCD000BB1FA617B70710F0A61BB70B881F991FED
:10FCE0005A95A9F780959095BC01CD010895F99991
:10FCF000FECF92BD81BDF89A992780B50895262F31
:10FD0000F999FECF1FBA92BD81BD20BD0FB6F89400
:0EFD1000FA9AF99A0FBE01960895F894FFCF63
:040000033000E000E9
:00000001FF