:1000000014C1000040C100003EC100003CC100001E
:100010003AC1000038C1000036C1000034C1000000
:1000200032C1000030C100002EC100002CC1000010
:100030002AC10000B2C2000026C1000024C1000095
:1000400022C1000020C100001EC100001CC1000030
:100050001AC1000018C1000016C1000054C20000FF
:1000600012C1000010C100000EC100000CC1000050
:100070000AC1000008C1000006C1000004C1000060
:1000800002C1000000C10000FEC00000FCC0000072
:10009000FAC00000F8C00000F6C00000F4C0000084
:1000A000F2C00000F0C00000EEC00000ECC0000094
:1000B000EAC00000E8C00000E6C000001FC3000066
:1000C000E2C00000E0C00000DEC00000DCC00000B4
:1000D000DAC00000D8C00000D6C00000D4C00000C4
:1000E000D2C000005E016101500154015A01980123
:1000F000650169016F01730177017D01810185014E
:1001000098018B018F01930100002000230026003D
:1001100029002C002F00320000010000030106011D
:10012000090100002100240027002A002D003000D2
:10013000330001010000040107010A0100000A0B5D
:1001400002090C0D0E080703040100000000000066
:10015000000000000000000000000000000000009F
:10016000000000000000000012111000000000005C
:10017000000000000000000000000000000000007F
:1001800000000102102020080810204010204080AC
:10019000020102010804020101020408102040804B
:1001A00080402010080402018004020180402010D9
:1001B0000804020108040201010204081020408022
:1001C00001020408102040800000220025002800C1
:1001D0002B002E003100340002010000050108014F
:1001E0000B010505050507050808080802020202BB
:1001F0000A0A0808040404040101010101010101C3
:100200000303030303030303040707070C0C0C0C8D
:100210000C0C0C0C02020202060606060606060676
:100220000B0B0B0B0B0B0B0B770511241FBECFEF2A
:10023000D1E2DEBFCDBF00E00CBF12E0A0E0B2E033
:10024000EEE0FBE000E00BBF02C007900D92AA3188
:10025000B107D9F723E0AAE1B2E001C01D92AA3AA2
:10026000B207E1F711E0C5E1D1E000E005C0219758
:100270000109802FFE0141D4C431D10780E0080775
:10028000B1F721D342C4BCCE90E0FC013197E231FA
:10029000F10508F04DC08827EE58FF4F8F4F2DC451
:1002A000809180008F7703C0809180008F7D809344
:1002B0008000089580918000877FF9CF84B58F7783
:1002C00002C084B58F7D84BD08958091B0008F7782
:1002D00003C08091B0008F7D8093B000089580911D
:1002E00090008F7707C0809190008F7D03C0809130
:1002F0009000877F8093900008958091A0008F7771
:1003000007C08091A0008F7D03C08091A000877FEF
:100310008093A0000895809120018F7707C080917D
:1003200020018F7D03C080912001877F8093200171
:1003300008951F93CF93DF93282F30E0F901E45CF9
:10034000FE4F8491F901EE57FE4FD491F901EE5121
:10035000FE4FC491CC23C1F0162F811195DFEC2FF5
:10036000F0E0EE0FFF1FE853FE4FA591B4918FB759
:10037000F894111105C09C91ED2FE095E92302C07E
:10038000EC91ED2BEC938FBFDF91CF911F910895EE
:10039000CF93DF9390E0FC01EE57FE4F2491FC01D8
:1003A000EE51FE4F8491882361F190E0880F991FF0
:1003B000FC01EE5DFE4FC591D491FC01E853FE4F68
:1003C000A591B491611109C09FB7F89488812095D7
:1003D00082238883EC912E230BC0623061F49FB797
:1003E000F8943881822F809583238883EC912E2B7B
:1003F0002C939FBF06C08FB7F894E8812E2B2883DB
:100400008FBFDF91CF910895CF93E6EFF2E0AFEF8A
:1004100090E0208187FF03C027FF06C049C028174E
:1004200019F0AF3F41F404C0158287FDFACF44C0F4
:10043000208127FDA92F9F5F3996943151F787FDC1
:100440003BC0AF3F09F438C0C82F89E0A802D001F3
:100450001124AA50BD4FCC932091F50211962C93F4
:1004600011978C2F0C2E000C990BFC01EE51FE4FB6
:10047000E491F0E0EE0FFF1FE853FE4F45915491D9
:1004800013965C934E931297FC01EE57FE4FE49146
:100490001496EC93149715961C92211102C060E0FB
:1004A00001C061E08C2F45DF61E08C2FCF9170CFD0
:1004B000AF3F09F0C0CFBECFCF9108953FB7F894BA
:1004C00080911F0290912002A0912102B0912202FE
:1004D00026B5A89B05C02F3F19F00196A11DB11D9F
:1004E0003FBFBA2FA92F982F8827820F911DA11DDA
:1004F000B11DBC01CD0142E0660F771F881F991F17
:100500004A95D1F708951F920F920FB60F921124BA
:100510002F933F938F939F93AF93BF9380911B0231
:1005200090911C02A0911D02B0911E0230911A02FE
:1005300023E0230F2D3720F40196A11DB11D05C026
:1005400026E8230F0296A11DB11D20931A02809365
:100550001B0290931C02A0931D02B0931E02809177
:100560001F0290912002A0912102B09122020196D7
:10057000A11DB11D80931F0290932002A093210220
:10058000B0932202BF91AF919F918F913F912F9194
:100590000F900FBE0F901F9018951F920F920FB6DD
:1005A0000F9211240BB60F920F931F932F933F932B
:1005B0004F935F936F937F938F939F93AF93BF936B
:1005C000CF93DF93EF93FF93809100028F5F80932F
:1005D0000002882329F0E6EFF2E020E030E059C085
:1005E00006EF12E0ECEFF2E0CEEFD2E0CE010197A1
:1005F000DC014C91CF010197DC01411103C028813E
:100600002223F9F02C9130E0808190E0B901681B41
:10061000790B1616170644F4442389F0840F911DB4
:100620008217930764F40AC0672B49F0488144237A
:1006300031F0841B9109281739070CF49C012083A1
:1006400002C08C91808380818823C9F0CF010597F7
:10065000DC018C91AF0142505109D80112962D91C5
:100660003C911397D9019C91DA01811103C08C91BF
:10067000892B03C08C9180958923D9018C93075FC6
:100680001F4F39962996B3E00A3A1B0709F0AECFFF
:10069000A2CF808187FD15C0E901CA50DD4F80914E
:1006A00000029E8198130DC09981A281B3818C8133
:1006B000911104C09C918095892302C09C91892B43
:1006C0008C933996275F3F4F243B310511F7FF91FB
:1006D000EF91DF91CF91BF91AF919F918F917F91DA
:1006E0006F915F914F913F912F911F910F910F90BB
:1006F0000BBE0F900FBE0F901F9018951F920F9278
:100700000FB60F9211240BB60F922F933F934F9376
:100710005F936F937F938F939F93AF93BF93CF9389
:10072000DF93EF93FF932091240230E0F901E45C22
:10073000FE4F8491F901EE57FE4FD491F901EE512D
:10074000FE4FC491CC2399F081119EDDEC2FF0E097
:10075000EE0FFF1FE85FFE4FA591B491EC91ED23E2
:1007600031E020E009F430E0832F922F02C080E0D6
:1007700090E020912802309129022F5F3F4F309363
:1007800029022093280220912702253618F026E01E
:1007900020932302209123022430D9F128F422301F
:1007A00069F02330D9F060C0253009F453C02630F9
:1007B00009F05AC021E02093F40253C0009709F0D9
:1007C00053C020912802309129022436310508F4C3
:1007D00043C01092F402109227021DC0813091058F
:1007E00009F042C0E091270221E02E0F209327025A
:1007F000F0E02091280230912902EE0FFF1FED5DFD
:10080000FD4F30872783109229021092280224E09E
:1008100029C00097B9F4E091270221E02E0F209320
:100820002702F0E02091280230912902EE0FFF1FED
:10083000ED5DFD4F30872783109229021092280228
:1008400023E010C02091280230912902253631057D
:1008500058F007C0009741F4109229021092280224
:1008600003C025E020932302209126022223B1F029
:10087000892B51F480912502882321F08091250253
:1008800061E009C02F9A0AC080912502882329F0CF
:100890008091250260E04DDD01C02F98FF91EF911E
:1008A000DF91CF91BF91AF919F918F917F916F9188
:1008B0005F914F913F912F910F900BBE0F900FBE04
:1008C0000F901F901895789484B5826084BD84B58C
:1008D000816084BD85B5826085BD85B5816085BD3B
:1008E00080916E00816080936E00109281008091F3
:1008F000810082608093810080918100816080937B
:100900008100809180008160809380008091B1009F
:1009100084608093B1008091B00081608093B000CA
:10092000809191008260809391008091910081601C
:1009300080939100809190008160809390008091DD
:10094000A10082608093A1008091A10081608093CA
:10095000A1008091A00081608093A000809121017E
:100960008260809321018091210181608093210127
:100970008091200181608093200180917A008460C1
:1009800080937A0080917A00826080937A008091CF
:100990007A00816080937A0080917A0080688093E9
:1009A0007A001092C100C1E0D2E029E0E22E22E0FC
:1009B000F22E31E1C32E32E0D32E8E0161E0F80138
:1009C00081918F01E5DC61E0F60181916F01E0DC4E
:1009D00061E0F70181917F01DBDCF2E009301F0764
:1009E00069F761E08991A5DC22E0C930D207C9F737
:1009F000F8941092200189E08093210180E293E035
:100A000090932901809328011092250110922401CE
:100A1000C2E0C09373007894C0932302109227021F
:100A20008091240260E0B4DC81E087BBC093B10018
:100A3000C093B00082E88093B300C0937000E6EFEB
:100A4000F2E080E090E02FEF2083DC01AA50BD4F60
:100A500011961C9211971382128217961C92179767
:100A600018961C9239960996843B910569F7109265
:100A7000F502C0E0D0E099E0E92E92E0F92E01E124
:100A800012E0F80181918F01BFDCF70181917F01B4
:100A9000BBDCF2E009311F07A1F710DD4B015C015F
:100AA00080EDC82E87E0D82EE12CF12C07DDDC018B
:100AB000CB0188199909AA09BB09883E9340A10571
:100AC000B10558F021E0C21AD108E108F10888EE1A
:100AD000880E83E0981EA11CB11CC114D104E1044E
:100AE000F10421F7209739F20E940000C4CFE3E21D
:100AF000F2E086E3818313820895EE0FFF1F881FC3
:0E0B00008BBF0790F691E02D1994F894FFCF6B
:100B0E00FF09080706050403023533312F27292B69
:0A0B1E002D17191B1D1F21232500B0
:00000001FF
