:1000000014C1000042C1000040C100003EC1000018
:100010003CC100003AC1000038C1000036C10000F8
:1000200034C1000032C1000030C100002EC1000008
:100030002CC1000036C2000028C1000026C100000B
:1000400024C1000022C1000020C100001EC1000028
:100050001CC100001AC1000018C10000D8C1000076
:1000600014C1000012C1000010C100000EC1000048
:100070000CC100000AC1000008C1000006C1000058
:1000800004C1000002C1000000C10000FEC0000069
:10009000FCC00000FAC00000F8C00000F6C000007C
:1000A000F4C00000F2C00000F0C00000EEC000008C
:1000B000ECC00000EAC00000E8C00000A3C20000DD
:1000C000E4C00000E2C00000E0C00000DEC00000AC
:1000D000DCC00000DAC00000D8C00000D6C00000BC
:1000E000D4C0000061016401530157015D019B010F
:1000F00068016C01720176017A0180018401880136
:100100009B018E0192019601000020002300260031
:1001100029002C002F00320000010000030106011D
:10012000090100002100240027002A002D003000D2
:10013000330001010000040107010A0100000A0B5D
:1001400002090C0D0E080703040100000000000066
:10015000000000000000000000000000000000009F
:10016000000000000000000012111000000000005C
:10017000000000000000000000000000000000007F
:1001800000000102102020080810204010204080AC
:10019000020102010804020101020408102040804B
:1001A00080402010080402018004020180402010D9
:1001B0000804020108040201010204081020408022
:1001C00001020408102040800000220025002800C1
:1001D0002B002E003100340002010000050108014F
:1001E0000B010505050507050808080802020202BB
:1001F0000A0A0808040404040101010101010101C3
:100200000303030303030303040707070C0C0C0C8D
:100210000C0C0C0C02020202060606060606060676
:100220000B0B0B0B0B0B0B0B490D11241FBECFEF50
:10023000D1E2DEBFCDBF00E00CBF12E0A0E0B2E033
:10024000EEE9FFE100E00BBF02C007900D92AA317A
:10025000B107D9F723E0AAE1B2E001C01D92AB3BA0
:10026000B207E1F711E0C5E1D1E000E006C0219757
:100270000109802FFE010E945E0DC431D10780E08C
:100280000807A9F7D9D30C94CD0FBACE90E0FC01A2
:100290003197E231F10508F04EC08827EE58FF4F44
:1002A0008F4F0C945E0D809180008F7703C08091FA
:1002B00080008F7D80938000089580918000877FEB
:1002C000F9CF84B58F7702C084B58F7D84BD089542
:1002D0008091B0008F7703C08091B0008F7D8093B4
:1002E000B0000895809190008F7707C080919000B2
:1002F0008F7D03C080919000877F80939000089548
:100300008091A0008F7707C08091A0008F7D03C0EF
:100310008091A000877F8093A000089580912001A4
:100320008F7707C0809120018F7D03C080912001CD
:10033000877F8093200108951F93CF93DF93282F09
:1003400030E0F901E45CFE4F8491F901EE57FE4F75
:10035000D491F901EE51FE4FC491CC23C1F0162F78
:10036000811194DFEC2FF0E0EE0FFF1FE853FE4FFA
:10037000A591B4918FB7F894111105C09C91ED2F00
:10038000E095E92302C0EC91ED2BEC938FBFDF9158
:10039000CF911F910895CF93DF9390E0FC01EE572A
:1003A000FE4F2491FC01EE51FE4F8491882361F1B0
:1003B00090E0880F991FFC01EE5DFE4FC591D4912E
:1003C000FC01E853FE4FA591B491611109C09FB79C
:1003D000F8948881209582238883EC912E230BC08A
:1003E000623061F49FB7F8943881822F809583231F
:1003F0008883EC912E2B2C939FBF06C08FB7F89467
:10040000E8812E2B28838FBFDF91CF9108951F9213
:100410000F920FB60F9211242F933F938F939F93B8
:10042000AF93BF938091F1029091F202A091F302F9
:10043000B091F4023091F00223E0230F2D3720F425
:100440000196A11DB11D05C026E8230F0296A11D2E
:10045000B11D2093F0028093F1029093F202A093D9
:10046000F302B093F4028091EC029091ED02A0911E
:10047000EE02B091EF020196A11DB11D8093EC0236
:100480009093ED02A093EE02B093EF02BF91AF9173
:100490009F918F913F912F910F900FBE0F901F90C2
:1004A00018951F920F920FB60F9211240BB60F9250
:1004B0000F931F932F933F934F935F936F937F936C
:1004C0008F939F93AF93BF93CF93DF93EF93FF935C
:1004D000809100028F5F80930002882329F0E7E07B
:1004E000F3E020E030E059C007E013E0EDE0F3E096
:1004F000CFE0D3E0CE010197DC014C91CF01019711
:10050000DC01411103C028812223F9F02C9130E055
:10051000808190E0B901681B790B1616170644F428
:10052000442389F0840F911D8217930764F40AC055
:10053000672B49F04881442331F0841B9109281727
:1005400039070CF49C01208302C08C918083808148
:100550008823C9F0CF010597DC018C91AF0142508F
:100560005109D80112962D913C911397D9019C9174
:10057000DA01811103C08C91892B03C08C91809585
:100580008923D9018C93075F1F4F39962996B3E0D1
:100590000B3B1B0709F0AECFA2CF808187FD15C0B2
:1005A000E901C95FDC4F809100029E8198130DC064
:1005B0009981A281B3818C81911104C09C91809515
:1005C000892302C09C91892B8C933996275F3F4FDA
:1005D000243B310511F7FF91EF91DF91CF91BF914E
:1005E000AF919F918F917F916F915F914F913F91CB
:1005F0002F911F910F910F900BBE0F900FBE0F9078
:100600001F9018951F920F920FB60F9211240BB6E0
:100610000F922F933F934F935F936F937F938F939B
:100620009F93AF93BF93CF93DF93EF93FF9320916B
:100630001B0230E0F901E45CFE4F8491F901EE57B2
:10064000FE4FD491F901EE51FE4FC491CC2399F0A5
:1006500081111CDEEC2FF0E0EE0FFF1FE85FFE4F74
:10066000A591B491EC91ED2331E020E009F430E064
:10067000832F922F02C080E090E020911F023091E2
:1006800020022F5F3F4F3093200220931F022091C2
:100690001E02253618F026E020931A0220911A0235
:1006A0002430D9F128F4223069F02330D9F060C029
:1006B000253009F453C0263009F05AC021E02093B8
:1006C000EB0253C0009709F053C020911F023091F4
:1006D00020022436310508F443C01092EB02109238
:1006E0001E021DC08130910509F042C0E0911E023A
:1006F00021E02E0F20931E02F0E020911F02309186
:100700002002EE0FFF1FE65EFD4F30872783109219
:10071000200210921F0224E029C00097B9F4E09152
:100720001E0221E02E0F20931E02F0E020911F02F6
:1007300030912002EE0FFF1FE65EFD4F30872783CA
:100740001092200210921F0223E010C020911F027D
:10075000309120022536310558F007C0009741F44A
:100760001092200210921F0203C025E020931A026B
:1007700020911D022223B1F0892B51F480911C029B
:10078000882321F080911C0261E009C02F9A0AC0E1
:1007900080911C02882329F080911C0260E0CCDD4E
:1007A00001C02F98FF91EF91DF91CF91BF91AF9151
:1007B0009F918F917F916F915F914F913F912F9179
:1007C0000F900BBE0F900FBE0F901F901895CF92F9
:1007D000DF92EF92FF92CF93DF93EC01072E000C94
:1007E000880B990B0E94BA0E6B017C0120E030E06F
:1007F00040E45FE30E946A0F20E030E048E452E406
:100800000E941F0E0E94870EC617D707D4F020E063
:1008100030E040EA5FE3C701B6010E946A0F20E0C2
:1008200030E048E452E40E941F0E20E030E040E84F
:100830005FE30E94B70D0E94870E21E06C177D07D1
:100840000CF420E0822F90E0DF91CF91FF90EF90A9
:10085000DF90CF9008950F931F93CF93DF938B0179
:10086000C82F880FDD0BFE01E75FFD4F6115710595
:1008700011F460E003C01616170634F4808111D01D
:10088000CF5FDD4F60E007C060E080810AD0602F5D
:100890006195CF5FDD4F8881DF91CF911F910F91DF
:1008A00000C0CF93E7E0F3E0AFEF90E0208187FF57
:1008B00003C027FF06C049C0281719F0AF3F41F415
:1008C00004C0658387FDFACF44C0208127FDA92F8E
:1008D0009F5F3996943151F787FD3BC0AF3F09F4D4
:1008E00038C0C82F89E0A802D0011124A95FBC4FED
:1008F000CC932091060311962C9311978C2F0C2EDC
:10090000000C990BFC01EE51FE4FE491F0E0EE0F6C
:10091000FF1FE853FE4F4591549113965C934E93FD
:100920001297FC01EE57FE4FE4911496EC93149746
:1009300015966C93211102C060E001C061E08C2F1C
:10094000FBDC61E08C2FCF9126CDAF3F09F0C0CF0B
:10095000BECFCF9108958F929F92AF92BF92CF92C8
:10096000DF92EF92FF920F931F93CF93DF93FC01DF
:10097000C081D1812091010330910203C217D307B6
:100980000CF048C09E01220F331FE091FF02F0914E
:100990000003E20FF31F80809180C170DD27F1E03A
:1009A000CF27209719F404E610E002C00CE91FEFEE
:1009B0007A015B016C01040F151FB801C40107DF48
:1009C000892B89F40E0D1F1DB801C40100DF892B8E
:1009D00069F4B8016E0D7F1DC401F9DE892BE9F0C1
:1009E00023E030E005C021E030E002C022E030E04A
:1009F000F501808191810196821793073CF0F50102
:100A000011821082F6018081918101969183808309
:100A1000CE0105C081E090E002C08FEF9FEFDF9133
:100A2000CF911F910F91FF90EF90DF90CF90BF90EB
:100A3000AF909F908F900895CF93DF93CDB7DEB79F
:100A40002C970FB6F894DEBF0FBECDBF789484B557
:100A5000826084BD84B5816084BD85B5826085BDBA
:100A600085B5816085BD80916E00816080936E0048
:100A7000109281008091810082608093810080913A
:100A800081008160809381008091800081608093EB
:100A900080008091B10084608093B1008091B000AB
:100AA00081608093B000809191008260809391007A
:100AB000809191008160809391008091900081608D
:100AC000809390008091A10082608093A10080912A
:100AD000A10081608093A1008091A000816080933B
:100AE000A0008091210182608093210180912101E9
:100AF0008160809321018091200181608093200199
:100B000080917A00846080937A0080917A0082607C
:100B100080937A0080917A00816080937A0080913E
:100B20007A00806880937A001092C10001E112E09F
:100B300089E0A82E82E0B82E91E0C92E92E0D92E4D
:100B4000780161E0D7018D917D0125DC61E0F5013F
:100B500081915F0120DC61E0D6018D916D011BDC8C
:100B6000B9E1EB16B2E0FB0661F761E0F8018191B3
:100B70008F01E2DBF2E009311F07B9F7F894109218
:100B8000200189E08093210180E293E09093290184
:100B900080932801109225011092240112E01093F5
:100BA0007300789410931A0210921E0280911B0217
:100BB00060E0F1DB81E087BB1093B1001093B000DF
:100BC00082E88093B30010937000E7E0F3E080E0E8
:100BD00090E02FEF2083DC01A95FBC4F11961C929F
:100BE00011971382128217961C92179718961C92CF
:100BF00039960996843B910569F71092060310E235
:100C0000212E312C44244A94542C320121E232E02A
:100C1000309300032093FF0280911E0290E0909396
:100C20000203809301038091EB0290E09093040310
:100C30008093030380911A02853009F06BC2809182
:100C4000230290912402885891098D35910588F4EA
:100C500080911E02843041F48091250290912602F9
:100C60008097479708F477C280911E02843408F079
:100C700059C280911E028A3108F44FC0809121022E
:100C800090912202843F914068F41092FE021092EB
:100C9000FD024092F9025092FA026092FB027092B9
:100CA000FC0259C0809123029091240285974B97B2
:100CB000A0F5E7E2F2E082E090E0C12CD12C7601D1
:100CC000AC014F5F5F4F20911E0230E04217530787
:100CD0005CF4DF0112972D913C91275031092730A8
:100CE000310508F47EC2CA010197959587959093C6
:100CF000FE028093FD020C972CF41092FE021092DB
:100D0000FD020BC0C092F902D092FA02E092FB02FF
:100D1000F092FC0284E090E03AC380911E028A3196
:100D200008F44CC0809121029091220280329340BD
:100D300008F4ABCF8091230290912402C697869746
:100D400008F46CC23BC0C092F902D092FA02E09261
:100D5000FB02F092FC028BE090E019C3208131810C
:100D6000255231092B31310508F068C2CC0CDD1C4D
:100D7000EE1CFF1C6894C0F802963496AC014F5FDD
:100D80005F4F20911E0230E04217530754F4DF01F9
:100D900012972D913C912C5031092B303105F0F2F6
:100DA000CA010197959587959093FE028093FD0265
:100DB0000C974CF61092FE021092FD0280911E02DA
:100DC000823208F44DC0809123029091240206974C
:100DD000079708F045C0E7E2F2E082E090E0C12C1E
:100DE000D12C76019C012F5F3F4F40911E0250E0B5
:100DF00024173507E4F4DF0112974D915C911197A8
:100E00004E5151094731510508F025C2CC0CDD1C6B
:100E1000EE1CFF1C6894C0F8408151813496435009
:100E200051094530510510F40296DCCFC9010197F4
:100E3000959587959093FE028093FD0240972CF440
:100E40001092FE021092FD020BC0C092F902D092E5
:100E5000FA02E092FB02F092FC028CE090E097C272
:100E60001C821B82E1E0F0E0FA83E98380911E029C
:100E70008D3008F466C049E753E0BE016D5F7F4FD7
:100E8000CE01019668DD892B09F05BC049E753E08C
:100E9000BE016D5F7F4FCE0101965DDD019709F0C8
:100EA00050C049E753E0BE016D5F7F4FCE01019610
:100EB00052DD892B09F045C0812C912C540100E0B2
:100EC00010E080911E0290E029813A8128173907AD
:100ED0004CF549E753E0BE016D5F7F4FCE010196AF
:100EE0003ADD7C0149E753E0BE016D5F7F4FCE01E3
:100EF000019631DDF1E0EF16F10449F4892B09F593
:100F0000880C991CAA1CBB1C689480F808C0EF28A8
:100F1000C1F40197B1F4880C991CAA1CBB1C0F5F8B
:100F20001F4FCFCF1093FE020093FD028092F90273
:100F30009092FA02A092FB02B092FC0221E030E013
:100F400098C21C821B8281E090E09A838983809101
:100F5000010390910203181619060CF054C0E09199
:100F6000FF02F091000382E090E09A8389838281FE
:100F7000938189974E9708F046C0A3E0B0E0BA830A
:100F8000A983848195810B970A9708F03CC04CEBAC
:100F900051E0BE016D5F7F4FCE010196DCDC892BF5
:100FA00091F54CEB51E0BE016D5F7F4FCE01019694
:100FB000D2DC019741F5812C912C540100E010E026
:100FC00029813A8180910103909102032817390702
:100FD0000CF082C14CEB51E0BE016D5F7F4FCE0142
:100FE0000196B9DC6C010330110509F041C14CEBED
:100FF00051E0BE016D5F7F4FCE010196ACDCC8169B
:10100000D90609F435C1E091FF02F0910003828115
:101010009381C697869708F0BFC1848195814B97CD
:10102000459708F0B9C1DF0116967F0126ECE20E64
:10103000F11C20E030E040E050E060E070E080E053
:1010400090E00D911C91119709501109083011057C
:1010500008F0A2C112960D911C911397015111092C
:101060000D30110508F047C101E03AD52160149612
:10107000AE15BF0531F72093F9023093FA02409381
:10108000FB025093FC0200E246D52093F702309316
:10109000F80285E090E09093F6028093F50280E3F9
:1010A00090E09093FE028093FD028091F90290916E
:1010B000FA02A091FB02B091FC028736E8E99E0794
:1010C000EFEFAE07B10509F0D9C16CE97FEF80E021
:1010D000C2DB6CE97FEF81E0BEDB6CE97FEF82E091
:1010E000BADB6CE97FEF83E0B6DB6CE97FEF84E08D
:1010F000B2DB6CE97FEF85E0AEDB6CE97FEF86E089
:10110000AADB6CE97FEF87E0A6DB82E080931A021E
:1011100010921E0280E090E0892B09F477CD0E94A6
:10112000000074CD8091250290912602825491098D
:101130008E9708F09ECD80E090E040E050E0BA014C
:10114000FC01E95DFD4F20813181295031092930B1
:101150003105C0F08ECD8091270290912802099729
:10116000099708F081CD1092FE021092FD02409284
:10117000F9025092FA026092FB027092FC0223E0A4
:1011800030E077C1FC01E75DFD4F208131812751BF
:10119000310922313105C0F4440F551F661F771FF6
:1011A000416004968038910559F63092FE022092F3
:1011B000FD024093F9025093FA026093FB02709390
:1011C000FC0283E090E0E3C02081318126503109A8
:1011D0002730310508F04DCD440F551F661F771F8E
:1011E000E0CF20813181235131092F30310548F47E
:1011F000CC0CDD1CEE1CFF1C6894C0F802963496E3
:101200005FCD208131812A5031092930310508F024
:1012100084CDCC0CDD1CEE1CFF1CF0CF8091250290
:1012200090912602C697869708F0C8CDE9E2F2E0D1
:1012300083E090E0C12CD12C7601A0CD20813181BA
:101240002C5031092A30310508F0B8CDCC0CDD1C0A
:10125000EE1CFF1C91CD4D915C914C5051094B30CF
:10126000510508F0FDCDCC0CDD1CEE1CFF1CD4CDCF
:101270004CEB51E0BE016D5F7F4FCE0101966BDB01
:101280007C010330110561F44CEB51E0BE016D5F50
:101290007F4FCE0101965FDBE816F90609F0B3CE69
:1012A000C114D10459F4EA94EF2809F0ACCE880CAB
:1012B000991CAA1CBB1C689480F80BC0CA94CD284A
:1012C00009F0A1CEEF2809F09ECE880C991CAA1C2B
:1012D000BB1C0F5F1F4F74CE1093FE020093FD02E4
:1012E0008092F9029092FA02A092FB02B092FC0264
:1012F00082E090E04CC012960D911C91139704501F
:1013000011090530110508F047C001E0E9D3AFCE5F
:10131000A80142505109DA014D915C91495051099F
:101320004830510508F080C1BC016F5F7F4FD80184
:101330004D915C911197475051094730510508F084
:1013400061C3220F331F216002960C5F1F4F409133
:101350001E0250E04450510984179507CCF20197C2
:10136000959587959093FE028093FD028A970CF4E1
:101370005BC1C901330FAA0BBB0B8093F902909399
:10138000FA02A093FB02B093FC0289E090E09093F4
:10139000F6028093F50289CE80911E02893340F0D7
:1013A00082819381895791098335910508F4DBC1C6
:1013B00080911E02823209F4DFC0828193818957B5
:1013C00091098335910508F0DEC080911E028132BB
:1013D00008F4D9C084819581CA97899708F0D3C051
:1013E0009F012A5F3F4FC12CD12C760143E050E092
:1013F000D9016D917C916A5071096930710508F0CD
:10140000C2C0D90112966D917C91139766517109F2
:101410006131710508F024C2D701C601880F991FF8
:10142000AA1FBB1F6C017D016894C0F84E5F5F4F1F
:101430002C5F3F4F43325105D9F69F012A5B3F4F46
:10144000D9012D913C912A5031092930310508F0FC
:101450009AC0E0E1F0E0F093FE02E093FD02C0925A
:10146000F902D092FA02E092FB02F092FC0226E02E
:1014700030E03093F6022093F50217CE8836F8E973
:101480009F07FFEFAF07B10508F03BC08D3F22E09B
:1014900092072FEFA207B10579F464E670E080E0CF
:1014A000DAD964E670E081E0D6D964E670E082E0E3
:1014B000D2D964E670E014C08F369049AF4FB105C1
:1014C00009F023CE6CE97FEF80E0C5D96CE97FEFAE
:1014D00081E0C1D96CE97FEF82E0BDD96CE97FEF93
:1014E00083E0B9D964E670E084E0B5D964E670E0E1
:1014F00085E0B1D964E670E086E0ADD964E670E0DD
:1015000002CE8735E8EA9E07EFEFAE07B105F9F4A2
:1015100060E070E080E09FD960E070E081E09BD9FE
:1015200060E070E082E097D960E070E083E093D9FA
:1015300060E070E084E08FD960E070E085E08BD9F6
:1015400060E070E086E087D960E070E0DCCD8F314C
:10155000904EAF4FB10509F0D8CD64E670E080E061
:101560007AD964E670E081E076D964E670E082E0E2
:1015700072D964E670E0B7CD828193810A970997AA
:1015800008F450C11ACF828193818C549109C59778
:1015900078F480911E02843031F4848195818097A3
:1015A000479708F486C180911E02843408F068C110
:1015B00080911E02863460F1828193810C970B9793
:1015C00008F4CBC125C0D90112966D917C91139777
:1015D0006E5171096731710508F0F5C1D701C60177
:1015E000880F991FAA1FBB1F6C017D016894C0F86A
:1015F0004E5F5F4F2C5F3F4F4534510509F4C8C122
:10160000D9016D917C916C5071096B307105D8F2E4
:1016100080911E02883540F082819381855891091E
:101620008B35910508F4DFC180911E028032E1F410
:101630008281938106970697B8F4848195810997F2
:10164000099790F49F012A5F3F4FBF01625C7F4F73
:10165000C12CD12C7601D9014D915C914650510994
:101660004630510508F4DAC120910103309102039C
:1016700038872F83263031050CF447CD8F010A5F60
:101680001F4F95ECC92E9DE9D92E9CE1E92E91E8DA
:10169000F92E83E090E09E838D83D8016D917C913B
:1016A000F8013497A080B18080E090E061D3698731
:1016B0007A878B879C87B50180E090E059D34B01F6
:1016C0005C012DEC3CEC4CE45FE304D49B01AC01E9
:1016D00069857A858B859C85AED287FD17C02DECF8
:1016E0003CEC4CE45FE369857A858B859C85F2D37D
:1016F0009B01AC01C501B4019ED2E82F880FFF0BFE
:10170000EE27FF0FEE1FFF27319602C0E0E0F0E06A
:10171000A701960163E971E080E091E0C0D16F011B
:10172000FF0FEE08FF08C626D726E826F926ED812A
:10173000FE813196FE83ED830E5F1F4F2F8138852A
:10174000E217F30709F0A9CFC092F902D092FA028A
:10175000E092FB02F092FC023092FE022092FD0227
:101760008FEF9FEF14CE84819581CA97899708F0F7
:101770001FCE9F012A5F3F4FC12CD12C760143E041
:1017800050E0D9016D917C916A5071096930710501
:1017900008F00ECED90112966D917C911397665187
:1017A00071096131710570F5D701C601880F991F64
:1017B000AA1FBB1F6C017D016894C0F84E5F5F4F8C
:1017C0002C5F3F4F4B335105E1F69F012A583F4FA5
:1017D000D9012D913C912A5031092930310508F069
:1017E000E7CD2CE130E03093FE022093FD02C09261
:1017F000F902D092FA02E092FB02F092FC028AE037
:1018000090E0C5CDD90112966D917C9113976650E9
:1018100071096730710508F0CBCDCC0CDD1CEE1CD6
:10182000FF1CCCCF20911E02CF01820F911D820F91
:10183000911DDC0112978D919C910A97099708F0F0
:10184000BCCD1092FE021092FD024092F90250921D
:10185000FA026092FB027092FC0286E090E097CD63
:10186000D90112966D917C9113976650710967307A
:10187000710508F088CECC0CDD1CEE1CFF1CD6CD0B
:101880008481958189549109C39708F091CE9F0175
:101890002A5F3F4FBF016A577F4FC12CD12C760181
:1018A000D9014D915C914950510949305105D0F011
:1018B0007FCE868197810997099708F074CE1092A0
:1018C000FE021092FD024092F9025092FA026092DA
:1018D000FB027092FC02A7E0B0E0B093F602A09386
:1018E000F502E3CBD90112964D915C9113974651C5
:1018F00051094131510530F112964D915C91139788
:10190000465051094730510508F052CECC0CDD1C31
:10191000EE1CFF1C2C5F3F4F2617370709F630924D
:10192000FE022092FD02C092F902D092FA02E092E9
:10193000FB02F092FC02E7E0F0E0F093F602E093A5
:10194000F502B3CBD701C601880F991FAA1FBB1F91
:101950006C017D016894C0F8DDCF84819581099781
:10196000099708F055CE868197818C974F9708F09C
:101970004FCE8085918589974D9708F049CE9F017C
:10198000265F3F4FC12CD12C760145E050E038CE88
:101990009F0126573F4FD9012D913C912C50310981
:1019A0002B30310508F034CE3092FE022092FD0239
:1019B000C092F902D092FA02E092FB02F092FC028D
:1019C00088E090E0E4CCD90112966D917C91139758
:1019D000695071096930710508F01ACECC0CDD1C14
:1019E000EE1CFF1C05CE84819581825491098E974F
:1019F00008F01ACE8F01045C1F4F8DE190E020E0CB
:101A000030E0A5CC4D915C914851510942315105CE
:101A100010F0CB01A4CC220F331F96CCD901129623
:101A20004D915C911397495151094331510508F586
:101A3000D701C601880F991FAA1FBB1F6C017D012A
:101A40006894C0F82C5F3F4F2617370709F003CE84
:101A50002EE030E03093FE022093FD02C092F902A6
:101A6000D092FA02E092FB02F092FC028FE090E04A
:101A70008ECCD90112964D915C9113974950510922
:101A80004930510508F0F0CDCC0CDD1CEE1CFF1CDC
:101A9000D9CFEAE1F2E086E3818313820895DB0186
:101AA0008F939F9313D0BF91AF91A29F800D911DF3
:101AB000A39F900DB29F900D11240895EE0FFF1F6C
:101AC000881F8BBF0790F691E02D199440D0A59FF9
:101AD000900DB49F900DA49F800D911D1124089529
:101AE0000F93083090F0982F872F762F652F542F63
:101AF000432F322F22270850F4CF220F331F441FC9
:101B0000551F661F771F881F991F0A95B2F70F91FF
:101B1000089597FB10F8169400080F93083098F07A
:101B20000850232F342F452F562F672F782F892FBA
:101B3000902DF4CF05949795879577956795579550
:101B40004795379527950A95AAF70F910895A29F73
:101B5000B001B39FC001A39F700D811D1124911D81
:101B6000B29F700D811D1124911D08955058BB27FF
:101B7000AA270ED075C166D130F06BD120F031F4B8
:101B80009F3F11F41EF45BC10EF4E095E7FB51C1D9
:101B9000E92F77D180F3BA17620773078407950797
:101BA00018F071F49EF58FC10EF4E0950B2EBA2F4C
:101BB000A02D0B01B90190010C01CA01A001112453
:101BC000FF27591B99F0593F50F4503E68F11A16FF
:101BD000F040A22F232F342F4427585FF3CF469590
:101BE00037952795A795F0405395C9F77EF41F16B2
:101BF000BA0B620B730B840BBAF09150A1F0FF0F7C
:101C0000BB1F661F771F881FC2F70EC0BA0F621F67
:101C1000731F841F48F4879577956795B795F79557
:101C20009E3F08F0B3CF9395880F08F09927EE0FE9
:101C3000979587950895D9D008F481E008950CD040
:101C40000FC107D140F0FED030F021F45F3F19F012
:101C5000F0C0511139C1F3C014D198F39923C9F3DD
:101C60005523B1F3951B550BBB27AA2762177307A2
:101C7000840738F09F5F5F4F220F331F441FAA1F56
:101C8000A9F333D00E2E3AF0E0E830D09150504016
:101C9000E695001CCAF729D0FE2F27D0660F771FC4
:101CA000881FBB1F261737074807AB07B0E809F0A6
:101CB000BB0B802DBF01FF2793585F4F2AF09E3F3B
:101CC000510568F0B6C000C15F3FECF3983EDCF30D
:101CD000869577956795B795F7959F5FC9F7880FB4
:101CE000911D9695879597F90895E1E0660F771F06
:101CF000881FBB1F621773078407BA0720F0621B97
:101D0000730B840BBA0BEE1F88F7E095089504D08F
:101D10006894B111D9C00895BCD088F09F5790F055
:101D2000B92F9927B751A0F0D1F0660F771F881F00
:101D3000991F1AF0BA95C9F712C0B13081F0C3D01B
:101D4000B1E00895C0C0672F782F8827B85F39F0B9
:101D5000B93FCCF3869577956795B395D9F73EF45F
:101D600090958095709561957F4F8F4F9F4F089507
:101D7000E89409C097FB3EF4909580957095619525
:101D80007F4F8F4F9F4F9923A9F0F92F96E9BB27DB
:101D90009395F695879577956795B795F111F8CF57
:101DA000FAF4BB0F11F460FF1BC06F5F7F4F8F4FC2
:101DB0009F4F16C0882311F096E911C0772321F0B8
:101DC0009EE8872F762F05C0662371F096E8862F50
:101DD00070E060E02AF09A95660F771F881FDAF7A7
:101DE000880F9695879597F90895990F0008550FD4
:101DF000AA0BE0E8FEEF16161706E807F907C0F091
:101E000012161306E407F50798F0621B730B840B98
:101E1000950B39F40A2661F0232B242B252B21F472
:101E200008950A2609F4A140A6958FEF811D811D12
:101E3000089597F99F6780E870E060E008959FEF4C
:101E400080EC089500240A94161617061806090651
:101E5000089500240A941216130614060506089520
:101E6000092E0394000C11F4882352F0BB0F40F4A8
:101E7000BF2B11F460FF04C06F5F7F4F8F4F9F4FE8
:101E8000089557FD9058440F551F59F05F3F71F06A
:101E90004795880F97FB991F61F09F3F79F08795D1
:101EA0000895121613061406551FF2CF4695F1DF5A
:101EB00008C0161617061806991FF1CF86957105EA
:101EC000610508940895E894BB2766277727CB011E
:101ED00097F908950BD0C4CFB5DF28F0BADF18F01A
:101EE000952309F0A6CFABCF1124EECFCADFA0F324
:101EF000959FD1F3950F50E0551F629FF001729F9F
:101F0000BB27F00DB11D639FAA27F00DB11DAA1FBD
:101F1000649F6627B00DA11D661F829F2227B00D0A
:101F2000A11D621F739FB00DA11D621F839FA00D95
:101F3000611D221F749F3327A00D611D231F849FE5
:101F4000600D211D822F762F6A2F11249F5750403C
:101F50008AF0E1F088234AF0EE0FFF1FBB1F661FD7
:101F6000771F881F91505040A9F79E3F510570F090
:101F700060CFAACF5F3FECF3983EDCF38695779570
:101F80006795B795F795E7959F5FC1F7FE2B880F8B
:0E1F9000911D9695879597F90895F894FFCFC7
:101F9E00FF3533312F27292B2D17191B1D1F2123F9
:0A1FAE0025090807060504030200D8
:00000001FF
